:100000000C944C000C9440020C946C020C949802DA
:100010000C94C4020C94F0020C941D030C9447033E
:100020000C946C000C946C000C946C000C946C00A0
:100030000C946C000C946C000C946C000C946C0090
:100040000C946C000C946C000C946C000C946C0080
:100050000C946C000C946C000C946C000C946C0070
:100060000C946C000C946C000C946C000C946C0060
:100070000C946C000C94E7000C946C000C946C00D5
:100080000C946C000C946C000C946C000C946C0040
:100090000C946C000C946C0011241FBECFEFD0E2C6
:1000A000DEBFCDBF11E0A0E0B1E0E6EBFCE000E098
:1000B0000BBF02C007900D92A430B107D9F71BBE49
:1000C00012E0A4E0B1E001C01D92A639B107E1F74A
:1000D0000E9471030C9459060C94000010BAEAE7D0
:1000E000F0E0808180688083808188608083808167
:1000F00087608083ECE7F0E08081816480831092E8
:1001000004017894089581E080930401EAE7F0E027
:100110008081806480837894089510920401EAE7D6
:10012000F0E080818F7B80830895EF92FF920F93A0
:100130001F93CF93DF93FC018091090190910A01F5
:10014000DC01AA0FBB1FA80FB91FAA0FBB1FA35F1B
:10015000BE4F14964D915C91159701E04D325007BA
:100160007CF59F01285C30402833310548F5ED01CE
:100170008A819B81489FB001499F700D589F700DE7
:100180001124CB01AA2797FDA095BA2F9A012F5FC2
:100190003F4F3D832C83AF01662757FD6095762F37
:1001A0007A018B01E80EF91E0A1F1B1FC801B70157
:1001B000442737FD4095542F0E9408063B832A832D
:1001C000DF91CF911F910F91FF90EF9008951F92B3
:1001D0000F920FB60F920BB60F9211242F933F93ED
:1001E0004F935F936F937F938F939F93AF93BF933F
:1001F000EF93FF933091780020917900932F80E066
:10020000820F911D0E949500EAE7F0E080818064F2
:100210008083FF91EF91BF91AF919F918F917F91DB
:100220006F915F914F913F912F910F900BBE0F9067
:100230000FBE0F901F90189587B18F6087B988B156
:1002400083708C6088B983EA84BD81E085BD8FE7C7
:1002500087BD1092060110920501089587BD08958B
:1002600088B18770886088B9089588B18B70846080
:1002700088B9089588B183708C6088B9089588B171
:100280008C70836088B988B908958DB380788DBBF0
:100290008AB1807F8AB98DB18F708DB9E9E6F0E0BF
:1002A00080818260808380818E7F8083808188606E
:1002B000808380818B7F808380818F7D808380811C
:1002C0008061808380818068808380818F7B808350
:1002D000EAE6F0E080818260808380818E7F808387
:1002E00080818860808380818B7F80838081806231
:1002F000808380818F7E80838DB38F678DBB8CB32D
:100300008F678CBB78940895FC01EE0FFF1FE80FF8
:10031000F91FEE0FFF1FE35FFE4F2481358133236A
:1003200064F1FC01EE0FFF1FE80FF91FEE0FFF1F36
:10033000E35FFE4F22813181313081F421502E3F25
:10034000E0F4FC01EE0FFF1F8E0F9F1FFC01EE0F6C
:10035000FF1FE35FFE4F84E08083089521502E3F0E
:1003600060F4FC01EE0FFF1F8E0F9F1FFC01EE0FCC
:10037000FF1FE35FFE4F82E0808308950E94260402
:100380009093900280938F02089580918F029091B4
:100390009002FC01EE0FFF1F8E0F9F1FFC01EE0F5E
:1003A000FF1FE35FFE4F81E0818308958091040188
:1003B000813049F40E948D008091090190910A01D9
:1003C0000E948401089580918F02909190029093F1
:1003D0000A01809309010E948300089580918D0293
:1003E00090918E02009709F44AC080910B01909180
:1003F0000C01FC01EE0FFF1F8E0F9F1FFC01EE0F83
:10040000FF1FE35FFE4F8081823039F1833018F4A3
:10041000813069F505C0833061F0843041F513C047
:100420008091930290919402009709F50E940A042A
:100430000895809193029091940286399105B9F4C0
:100440000E940A040895809193029091940282334D
:10045000910569F40E940A04089580919302909195
:1004600094028436910519F40E940A0408950E94AA
:100470003A0181E090E09093060180930501089590
:100480001F920F920FB60F920BB60F9211242F935B
:100490003F934F935F936F937F938F939F93AF930C
:1004A000BF93EF93FF9380E090E00E94AE040E9420
:1004B000BE01FF91EF91BF91AF919F918F917F917D
:1004C0006F915F914F913F912F910F900BBE0F90C5
:1004D0000FBE0F901F9018951F920F920FB60F929C
:1004E0000BB60F9211242F933F934F935F936F930B
:1004F0007F938F939F93AF93BF93EF93FF9381E08D
:1005000090E00E94AE040E94C501FF91EF91BF915F
:10051000AF919F918F917F916F915F914F913F919B
:100520002F910F900BBE0F900FBE0F901F9018953C
:100530001F920F920FB60F920BB60F9211242F93AA
:100540003F934F935F936F937F938F939F93AF935B
:10055000BF93EF93FF930E94D60182E090E00E9448
:10056000AE04FF91EF91BF91AF919F918F917F91D9
:100570006F915F914F913F912F910F900BBE0F9014
:100580000FBE0F901F9018951F920F920FB60F92EB
:100590000BB60F9211242F933F934F935F936F935A
:1005A0007F938F939F93AF93BF93EF93FF930E949B
:1005B000EE0183E090E00E94AE04FF91EF91BF91C5
:1005C000AF919F918F917F916F915F914F913F91EB
:1005D0002F910F900BBE0F900FBE0F901F9018958C
:1005E0001F920F920FB60F920BB60F9211242F93FA
:1005F0003F934F935F936F937F938F939F93AF93AB
:10060000BF93EF93FF9381E08093950284E090E0A5
:100610000E94AE04FF91EF91BF91AF919F918F9196
:100620007F916F915F914F913F912F910F900BBEF2
:100630000F900FBE0F901F9018951F920F920FB63C
:100640000F920BB60F9211242F933F934F935F930A
:100650006F937F938F939F93AF93BF93EF93FF938A
:1006600085E090E00E94AE04FF91EF91BF91AF91C1
:100670009F918F917F916F915F914F913F912F91BA
:100680000F900BBE0F900FBE0F901F9018951F92EA
:100690000F920FB60F920BB60F9211242F933F9328
:1006A0004F935F936F937F938F939F93AF93BF937A
:1006B000EF93FF9386E090E00E94AE04FF91EF91EC
:1006C000BF91AF919F918F917F916F915F914F916A
:1006D0003F912F910F900BBE0F900FBE0F901F9068
:1006E0001895E1E6F0E080E8808310820E94CE0554
:1006F0000E94E8038FEF81B90E9445010E94FB042C
:1007000080919502882349F489E190E060E00E949D
:100710000805809195028823B9F3109294021092F3
:100720009302109295020E946E000E94830088EE50
:1007300093E00E94D4050E941C010E943001CDE08C
:10074000D1E040918D0250918E0280910B019091E9
:100750000C019C01220F331F820F931FFC01EE0F2F
:10076000FF1FEC0FFD1F80811416150684F58230E3
:1007700099F0833018F48130B9F705C08330A9F0BF
:10078000843091F71BC080E090E00E94860584EFE2
:1007900091E00E94D405D5CF84E690E00E948605C2
:1007A00084EF91E00E94D405CCCF86E990E00E94CE
:1007B000860584EF91E00E94D405C3CF82E390E0E8
:1007C0000E94860584EF91E00E94D405BACFFFCF46
:1007D00010920C0110920B01109208011092070167
:1007E0001092900210928F0210920A011092090149
:1007F00010928E0210928D020895860F971F8034FA
:1008000091051CF0805490400895992314F4805C65
:100810009F4F0895CF93DF93C0918D02D0918E02A8
:10082000209789F080910B0190910C0161E070E0BC
:100830000E94FD0390930C0180930B012197D093AC
:100840008E02C0938D02DF91CF91089580910701B0
:100850009091080161E070E00E94FD03909308010F
:100860008093070120918D0230918E022F5F3F4FC0
:1008700030938E0220938D02FC01EE0FFF1FE80FD4
:10088000F91FEE0FFF1FE35FFE4F138212821582E6
:100890001482118210820895873071F1883070F4CB
:1008A000833011F1843028F48130D1F18230D0F4DA
:1008B00017C08530E9F08630E8F418C08B3021F19C
:1008C0008C3028F48930E1F08A30E0F417C08D30A4
:1008D000F9F08D30D8F08E30E9F08F30F9F41CC08B
:1008E0008CEF08958AED089582EF089586E60895C5
:1008F00086EB08958EEB089580EE08958EEF0895AF
:1009000086EE08958EEE08958EE308958CE908959D
:100910008AE708958EE908958EE8089580E00895A5
:1009200080E6089520E030E090E062B1AC01022E54
:1009300002C0559547950A94E2F741704295440FDD
:10094000440F407C562F5F7B452B42B9179A17986E
:100950002F5F3F4F2830310541F70895EF92FF9206
:100960000F931F93CF93DF93C3E0D0E00F2EFAE0F5
:10097000EF2EFF24F02DB7010E94F505162F072F4B
:100980000E944C040E949204812F902F219799F786
:10099000DF91CF911F910F91FF90EF900895EF920B
:1009A000FF920F931F93CF93DF93EC0103E010E0CE
:1009B000EE24FF246894E4F8CE01B7010E94F50507
:1009C0000E944C040E949204CE01DD230CF40F9689
:1009D000EC01D595C795D595C795D595C795D5956E
:1009E000C7950150104041F7DF91CF911F910F91B2
:1009F000FF90EF90089581B18F6381B910929202B8
:100A00001092910282B1807F82B91092950208956E
:100A1000CF93C62F0E94D405CC2311F5809191026B
:100A20009091920201969093920280939102843069
:100A3000910521F4109292021092910292B1E091EC
:100A40009102F0919202E050FF4F8081806C8923E7
:100A500082B910929402109293021092950224C0CF
:100A600080919102909192020197909392028093CB
:100A700091022FEF8F3F920731F483E090E0909343
:100A800092028093910292B1E0919102F0919202D0
:100A9000E050FF4F8081806C892382B910929402CC
:100AA0001092930210929502CF910895861797079E
:100AB0004CF4681B790B1AF4709561957F4F862F63
:100AC000972F0895861B970B9C0128533F4F1AF4CC
:100AD000309521953F4F822F932F089568177907FE
:100AE0004CF4681B790B1AF4709561957F4F862F33
:100AF000972F0895861B970B9C0128533F4F1AF49C
:100B0000309521953F4F822F932F0895EF92FF92BA
:100B10000F931F93CF93DF93EC01E0909302F0903B
:100B20009402B7010E9456058C01CE01B7010E94C4
:100B30006E05EC010817190724F0181619067CF049
:100B400017C010161106A4F48FE090E060E00E9438
:100B500008050F5F1F4F10161106B4F309C08FE090
:100B600090E061E00E94080521961C161D06BCF36A
:100B700080910501909106018130910541F40E9418
:100B8000300110920601109205010E94EE01DF91E2
:100B9000CF911F910F91FF90EF900895E1E8F0E061
:100BA00080818160808308959C01E1E8F0E080818C
:100BB0008860808380818360808312161306A4F48A
:100BC00080E090E0E8E8F0E04DE750E0A4E8B0E035
:100BD0005183408311961C921E92B19AB19BFECF15
:100BE000019682179307A1F7089597FB092E072610
:100BF0000AD077FD04D027D006D000201AF47095D3
:100C000061957F4F0895F6F7909581959F4F0895D0
:100C100097FB092E05260ED057FD04D028D00AD008
:100C2000001C38F450954095309521953F4F4F4F1B
:100C30005F4F0895F6F790958095709561957F4F79
:100C40008F4F9F4F0895AA1BBB1B51E107C0AA1FDE
:100C5000BB1FA617B70710F0A61BB70B881F991F5D
:100C60005A95A9F780959095BC01CD010895A1E210
:100C70001A2EAA1BBB1BFD010DC0AA1FBB1FEE1F16
:100C8000FF1FA217B307E407F50720F0A21BB30B61
:100C9000E40BF50B661F771F881F991F1A9469F7DD
:100CA00060957095809590959B01AC01BD01CF0139
:060CB0000895F894FFCF47
:040CB60030062805D7
:00000001FF
