:100000000C944C000C942F030C945D030C948B0304
:100010000C94B3030C94E1030C9410040C9441046D
:100020000C946C000C946C000C946C000C946C00A0
:100030000C946C000C946C000C946C000C946C0090
:100040000C946C000C946C000C946C000C946C0080
:100050000C946C000C946C000C946C000C946C0070
:100060000C946C000C946C000C946C000C946C0060
:100070000C946C000C94DF000C946C000C946C00DD
:100080000C946C000C946C000C946C000C946C0040
:100090000C946C000C946C0011241FBECFEFD0E2C6
:1000A000DEBFCDBF11E0A0E0B1E0ECE7F2E100E09F
:1000B0000BBF02C007900D92A430B107D9F71BBE49
:1000C00011E0A4E0B1E001C01D92A73BB107E1F748
:1000D0000E946F040C943C090C94000010BAEAE7EB
:1000E000F0E0808180688083808188608083808167
:1000F00087608083ECE7F0E08081816480831092E8
:100100000501109204017894089581E0809305011F
:10011000EAE7F0E08081806480837894089510920B
:100120000501EAE7F0E080818F7B808308959C01E0
:1001300080910401813009F441C080916301909164
:100140006401FC01EE0FFF1FE80FF91FEE0FFF1F08
:10015000E959FE4F44815581483C51057CF5A90180
:100160004253504063E04F3C560740F5FC01EE0F10
:10017000FF1FE80FF91FEE0FFF1FE959FE4F4281E5
:100180005381241735075CF4FC01EE0FFF1FE80FC5
:10019000F91FEE0FFF1FE959FE4F33832283FC0145
:1001A000EE0FFF1F8E0F9F1FFC01EE0FFF1FE9597F
:1001B000FE4F8481958101969583848308951F92D3
:1001C0000F920FB60F920BB60F9211242F933F93FD
:1001D0004F935F936F937F938F939F93AF93BF934F
:1001E000EF93FF9380917800909179000E9497009F
:1001F000EAE7F0E0808180648083FF91EF91BF9116
:10020000AF919F918F917F916F915F914F913F91AE
:100210002F910F900BBE0F900FBE0F901F9018954F
:1002200087B18F6087B988B1807F88B98FEF84B933
:1002300083EA84BD81E085BD8FEB87BD1092070105
:10024000109208011092090110920601089587BDCD
:10025000089588B1807F886088B981E08093090122
:10026000089588B1807F816088B982E08093090118
:10027000089588B1807F88B910920901089588B1E6
:10028000807F866088B983E080930901089580911A
:100290006001813009F51092600180910601813082
:1002A00039F0813058F0823031F0833061F409C088
:1002B0000E94290108C00E94310105C00E94390135
:1002C00002C00E943F0180910801882371F00E94C2
:1002D000FC050E942901089580910901809306017F
:1002E0000E94390181E08093600108958DB3807888
:1002F0008DBB8AB1807F8AB98DB18F708DB9E9E6E7
:10030000F0E080818260808380818E7F8083808125
:100310008860808380818B7F808380818F7D8083D4
:1003200080818061808380818068808380818F7BF1
:100330008083EAE6F0E080818260808380818E7F26
:10034000808380818860808380818B7F80838081AF
:100350008062808380818F7E80838DB38F678DBB29
:100360008CB38F678CBB78940895FC01EE0FFF1F50
:10037000E80FF91FEE0FFF1FE959FE4F228133816D
:100380004181413091F42F5130402731310590F5B2
:10039000FC01EE0FFF1F8E0F9F1FFC01EE0FFF1FD2
:1003A000E959FE4F84E080830895A901445F5140DC
:1003B0004431510568F4FC01EE0FFF1F8E0F9F1FA3
:1003C000FC01EE0FFF1FE959FE4F81E08083089585
:1003D000295B31402133310568F4FC01EE0FFF1F2A
:1003E0008E0F9F1FFC01EE0FFF1FE959FE4F82E0A9
:1003F000808308958FEE90E00E94BF07089580915A
:10040000B0019091B1012FEF8F3F920739F40E9414
:1004100020069093B1018093B00108950E948A054F
:100420000E9420069093B1018093B00108958091BD
:10043000B0019091B1012FEF8F3F920761F0FC0165
:10044000EE0FFF1F8E0F9F1FFC01EE0FFF1FE959DC
:10045000FE4F81E08183089580910501813099F4F8
:100460008093040183E090E00E94F408109204015C
:100470004A992CC00E948F00809163019091640181
:100480000E94B501089583E090E00E94F4084A9B21
:100490001DC080910E0190910F01009779F4809119
:1004A000B0019091B10190936401809363018FEF4B
:1004B0009FEF9093B1018093B00106C00E945E054A
:1004C00090936401809363010E9485000895809158
:1004D000AC019091AD01009709F4B2C08091600128
:1004E000813009F4ADC08091650190916601FC01F5
:1004F000EE0FFF1F8E0F9F1FFC01EE0FFF1FE9592C
:10050000FE4F8081823009F46BC0833020F481304B
:1005100009F085C006C0833019F1843009F07FC02E
:100520003FC08091B4019091B501009709F083C05C
:100530008091A8019091A90101969093A9018093BF
:10054000A8012091AE013091AF012F5F3F4F309352
:10055000AF012093AE010E9456070E94FC0508954A
:100560008091B4019091B5018639910509F063C07D
:100570008091A3019091A40101969093A40180938E
:10058000A3012091AE013091AF012F5F3F4F309317
:10059000AF012093AE010E9432070E94FC0508952E
:1005A0008091B4019091B5018233910509F043C067
:1005B0008091A5019091A60101969093A601809348
:1005C000A5012091AE013091AF012F5F3F4F3093D5
:1005D000AF012093AE010E940E070E94FC05089512
:1005E0008091B4019091B5018436910521F58091F7
:1005F000AA019091AB0101969093AB018093AA015F
:100600002091AE013091AF012F5F3F4F3093AF018A
:100610002093AE010E947A070E94FC05089580EFA6
:1006200090E00E94BF0681E0809308010E9439019A
:100630000E94470108950E94390181E080930701DB
:1006400008958091AC019091AD01009739F484EF49
:1006500091E00E94F4080E943901FFCF08951F9293
:100660000F920FB60F920BB60F9211242F933F9358
:100670004F935F936F937F938F939F93AF93BF93AA
:10068000EF93FF9383E090E00E94F408489902C042
:100690000E94FF01FF91EF91BF91AF919F918F91C8
:1006A0007F916F915F914F913F912F910F900BBE72
:1006B0000F900FBE0F901F9018951F920F920FB6BC
:1006C0000F920BB60F9211242F933F934F935F938A
:1006D0006F937F938F939F93AF93BF93EF93FF930A
:1006E00083E090E00E94F408499902C00E9417023A
:1006F000FF91EF91BF91AF919F918F917F916F91FA
:100700005F914F913F912F910F900BBE0F900FBEB5
:100710000F901F9018951F920F920FB60F920BB665
:100720000F9211242F933F934F935F936F937F9377
:100730008F939F93AF93BF93EF93FF930E942C02ED
:10074000FF91EF91BF91AF919F918F917F916F91A9
:100750005F914F913F912F910F900BBE0F900FBE65
:100760000F901F9018951F920F920FB60F920BB615
:100770000F9211242F933F934F935F936F937F9327
:100780008F939F93AF93BF93EF93FF9383E090E09A
:100790000E94F4084B9902C00E946702FF91EF91FA
:1007A000BF91AF919F918F917F916F915F914F9189
:1007B0003F912F910F900BBE0F900FBE0F901F9087
:1007C00018951F920F920FB60F920BB60F9211242D
:1007D0002F933F934F935F936F937F938F939F9349
:1007E000AF93BF93EF93FF9383E090E00E94F408F0
:1007F000649903C081E08093B601FF91EF91BF91AE
:10080000AF919F918F917F916F915F914F913F91A8
:100810002F910F900BBE0F900FBE0F901F90189549
:100820001F920F920FB60F920BB60F9211242F93B7
:100830003F934F935F936F937F938F939F93AF9368
:10084000BF93EF93FF9384E190E00E94F4086599D1
:1008500005C081E08093A7010E942103FF91EF91E1
:10086000BF91AF919F918F917F916F915F914F91C8
:100870003F912F910F900BBE0F900FBE0F901F90C6
:1008800018951F920F920FB60F920BB60F9211246C
:100890002F933F934F935F936F937F938F939F9388
:1008A000AF93BF93EF93FF9384E190E00E94F4082D
:1008B000669902C00E944701FF91EF91BF91AF91ED
:1008C0009F918F917F916F915F914F913F912F9168
:1008D0000F900BBE0F900FBE0F901F901895E1E682
:1008E000F0E080E8808310820E94EE0888EE93E0BA
:1008F0000E94F40880E590E00E94BF070E94C205B4
:100900000E94420581E590E00E94BF078FEF81B908
:100910000E94760182E590E00E94BF070E94EB07EB
:1009200083E590E00E94BF078091B4019091B501EA
:10093000009789F084E190E060E00E94FF078091D9
:10094000B4019091B5010E94BF078091B4019091CC
:10095000B501009779F71092B5011092B401109289
:10096000B6010E946E0088EE93E00E94F4080E9497
:10097000100184E590E00E94BF070E942901C7E6AC
:10098000D1E042C08091AE019091AF010E94EA0691
:1009900080ED97E00E94F408809160018823C9F1FE
:1009A0008091AA019091AB010E947A0780ED97E0B7
:1009B0000E94F40880916001882359F18091A80178
:1009C0009091A9010E94560780ED97E00E94F408DB
:1009D000809160018823E9F08091A3019091A401A6
:1009E0000E94320780ED97E00E94F4088091600138
:1009F000882379F08091A5019091A6010E940E07AD
:100A000080ED97E00E94F40880916001813009F444
:100A1000B9CF84E690E00E94F4088091AC019091F7
:100A2000AD01009789F38091650190916601FC0109
:100A3000EE0FFF1F8E0F9F1FFC01EE0FFF1FEC0F2D
:100A4000FD1F8081823079F0833018F48130E1F627
:100A500005C0833069F08430B9F60FC080E090E0C3
:100A60000E94AA08D1CF84E690E00E94AA08CCCFC9
:100A700086E990E00E94AA08C7CF82E390E00E9436
:100A8000AA08C2CF10920B0110920A0110920D0118
:100A900010920C0110920F0110920E011092110190
:100AA000109210010895860F971F8832910514F057
:100AB0008897089599230CF4889608950F931F93AF
:100AC000CF93DF93C0910E01D0910F012097C9F011
:100AD00080910A0190910B01FC01EE0FFF1FE05F76
:100AE000FE4F0081118161E070E00E9453059093F8
:100AF0000B0180930A012197D0930F01C0930E013F
:100B000002C00FEF1FEF802F912FDF91CF911F9128
:100B10000F9108950F931F93CF93DF938C01C09192
:100B20000E01D0910F01209749F480910A01909114
:100B30000B0190930D0180930C010FC01C161D0634
:100B400064F480910C0190910D0161E070E00E94CD
:100B5000530590930D0180930C012196D0930F01C2
:100B6000C0930E0180910C0190910D01FC01EE0FDC
:100B7000FF1FE05FFE4F11830083DF91CF911F9134
:100B80000F91089510926601109265011092620112
:100B9000109261018FEF9FEF9093B1018093B001AC
:100BA00010926401109263011092AD011092AC0199
:100BB000109260011092A7011092AF011092AE0145
:100BC0001092AB011092AA011092A9011092A801F3
:100BD0001092A4011092A3011092A6011092A501F7
:100BE0000895860F971F8A30910514F00A9708958B
:100BF00099230CF40A960895CF93DF93C091AC012A
:100C0000D091AD012097C9F0809165019091660166
:100C100061E070E00E94F1059093660180936501A8
:100C20002197D093AD01C093AC01209731F480910E
:100C3000A701813011F40E942103DF91CF91089523
:100C4000CF93DF93C091AC01D091AD01209749F4CF
:100C5000809165019091660190936201809361019A
:100C60000FC01C161D0664F4809161019091620111
:100C700061E070E00E94F105909362018093610150
:100C80002196D093AD01C093AC0180916101909108
:100C90006201FC01EE0FFF1FE80FF91FEE0FFF1FAF
:100CA000E959FE4F20E034E0338322831582148219
:100CB00011821082DF91CF910895873071F18830D1
:100CC00070F4833011F1843028F48130D1F1823016
:100CD000D0F417C08530E9F08630E8F418C08B30C6
:100CE00021F18C3028F48930E1F08A30E0F417C02B
:100CF0008D30F9F08D30D8F08E30E9F08F30F9F486
:100D00001CC08CEF08958AED089582EF089586E661
:100D1000089586EB08958EEB089580EE08958EEF8A
:100D2000089586EE08958EEE08958EE308958CE979
:100D300008958AE708958EE908958EE8089580E081
:100D4000089580E6089520E030E090E062B1AC01C3
:100D5000022E02C0559547950A94E2F741704295DC
:100D6000440F440F407C562F5F7B452B42B9179AA6
:100D700017982F5F3F4F2830310541F70895CF93E3
:100D8000DF93EC0160E170E00E9415090E945D06AE
:100D90000E94A306CE01DD230CF40F96959587954E
:100DA00095958795959587959595879560E170E0E0
:100DB0000E9415090E945D060E94A3068AE00E9417
:100DC000A3068AE00E94A3068EE90E94A306DF9193
:100DD000CF9108950F931F93CF93DF93CAE0D0E094
:100DE000BE010E9415098B010E945D060E94A306A8
:100DF000C801BE010E9415090E945D060E94A3065B
:100E00008EE10E94A3068AE30E94A3068EE10E945F
:100E1000A306DF91CF911F910F9108950F931F9318
:100E2000CF93DF93CAE0D0E0BE010E9415098B0189
:100E30000E945D060E94A306C801BE010E9415091A
:100E40000E945D060E94A3068CE70E94A3068CE127
:100E50000E94A3068EEE0E94A306DF91CF911F9100
:100E60000F9108950F931F93CF93DF93CAE0D0E0C3
:100E7000BE010E9415098B010E945D060E94A30617
:100E8000C801BE010E9415090E945D060E94A306CA
:100E90008CE10E94A3068EE10E94A30686EB0E94CD
:100EA000A306DF91CF911F910F9108950F931F9388
:100EB000CF93DF93CAE0D0E0BE010E9415098B01F9
:100EC0000E945D060E94A306C801BE010E9415098A
:100ED0000E945D060E94A3068EEE0E94A3068CE18E
:100EE0000E94A3068EE30E94A306DF91CF911F917B
:100EF0000F9108950F931F93CF93DF93CAE0D0E033
:100F0000BE010E9415098B010E945D060E94A30686
:100F1000C801BE010E9415090E945D060E94A30639
:100F20008EE90E94A3068EE10E94A3068CE10E9436
:100F3000A306DF91CF911F910F910895EF92FF9239
:100F40000F931F93CF93DF93C5E0D0E00F2EFAE00D
:100F5000EF2EFF24F02DB7010E941509162F072F41
:100F60000E945D060E94A306812F902F219799F77A
:100F7000DF91CF911F910F91FF90EF900895EF9225
:100F8000FF920F931F93CF93DF93EC0105E010E0E6
:100F9000EE24FF246894E4F8CE01B7010E941509FD
:100FA0000E945D060E94A306CE01DD230CF40F967D
:100FB000EC01D595C795D595C795D595C795D59588
:100FC000C7950150104041F7DF91CF911F910F91CC
:100FD000FF90EF90089581B18F6381B91092B301B2
:100FE0001092B20182B1807C806382B91092B60106
:100FF00081E090E09093B5018093B4010895CF9380
:10100000C62F0E94F408CC2381F58091B201909103
:10101000B30101969093B3018093B201843091059E
:1010200021F41092B3011092B20182B1E091B201A9
:10103000F091B301E050FF4F807C9081892B82B901
:101040008091B4019091B50101969093B501809380
:10105000B4018091B601813009F040C01092B50111
:101060001092B4011092B60139C08091B2019091F2
:10107000B30101979093B3018093B2012FEF8F3F9B
:10108000920731F483E090E09093B3018093B20132
:1010900082B1E091B201F091B301E050FF4F807C4A
:1010A0009081892B82B98091B4019091B50101970B
:1010B0009093B5018093B401992334F487EC90E0C8
:1010C0009093B5018093B4018091B601813031F4E1
:1010D0001092B5011092B4011092B601CF9108950B
:1010E000861797074CF4681B790B1AF47095619575
:1010F0007F4F862F972F0895681B790B1AF47095F0
:1011000061957F4F28EC30E0261B370B1AF43095A1
:1011100021953F4F822F932F0895681779074CF43C
:10112000681B790B1AF4709561957F4F862F972F66
:101130000895681B790B1AF4709561957F4F28EC20
:1011400030E0261B370B1AF4309521953F4F822F44
:10115000932F0895EF92FF920F931F93CF93DF93F6
:101160007C01C091B401D091B501C817D90779F1BC
:10117000CE01B7010E9470088C01CE01B7010E9418
:101180008D08081719076CF48FE090E060E00E946A
:10119000FF078091B4019091B5018E159F05A1F7CD
:1011A0000CC08FE090E061E00E94FF078091B401E5
:1011B0009091B5018E159F05A1F7809107018130AF
:1011C00031F40E942901109207010E946702DF9109
:1011D000CF911F910F91FF90EF900895E1E8F0E01B
:1011E00080818160808308959C01E1E8F0E0808146
:1011F0008860808380818360808312161306A4F444
:1012000080E090E0E8E8F0E04DE750E0A4E8B0E0EE
:101210005183408311961C921E92B19AB19BFECFCE
:10122000019682179307A1F7089597FB092E0726C9
:101230000AD077FD04D00CD006D000201AF47095A7
:1012400061957F4F0895F6F7909581959F4F08958A
:10125000AA1BBB1B51E107C0AA1FBB1FA617B707DC
:1012600010F0A61BB70B881F991F5A95A9F78095F8
:0C1270009095BC01CD010895F894FFCFCB
:04127C00300628050B
:00000001FF
