:100000000C944C000C9489020C94B7020C94E502F9
:100010000C940D030C943B030C946A030C949B0307
:100020000C946C000C946C000C946C000C946C00A0
:100030000C946C000C946C000C946C000C946C0090
:100040000C946C000C946C000C946C000C946C0080
:100050000C946C000C946C000C946C000C946C0070
:100060000C946C000C946C000C946C000C946C0060
:100070000C946C000C94DF000C946C000C946C00DD
:100080000C946C000C946C000C946C000C946C0040
:100090000C946C000C946C0011241FBECFEFD0E2C6
:1000A000DEBFCDBF11E0A0E0B1E0E6EAFDE000E098
:1000B0000BBF02C007900D92A430B107D9F71BBE49
:1000C00012E0A4E0B1E001C01D92A839B107E1F748
:1000D0000E94CB030C94D1060C94000010BAEAE7FE
:1000E000F0E0808180688083808188608083808167
:1000F00087608083ECE7F0E08081816480831092E8
:100100000501109204017894089581E0809305011F
:10011000EAE7F0E08081806480837894089510920B
:100120000501EAE7F0E080818F7B808308959C01E0
:1001300080910401813009F441C080910A019091BD
:100140000B01FC01EE0FFF1FE80FF91FEE0FFF1F61
:10015000E25FFE4F44815581483C51057CF5A90181
:100160004253504063E04F3C560740F5FC01EE0F10
:10017000FF1FE80FF91FEE0FFF1FE25FFE4F4281E6
:100180005381241735075CF4FC01EE0FFF1FE80FC5
:10019000F91FEE0FFF1FE25FFE4F33832283FC0146
:1001A000EE0FFF1F8E0F9F1FFC01EE0FFF1FE25F80
:1001B000FE4F8481958101969583848308951F92D3
:1001C0000F920FB60F920BB60F9211242F933F93FD
:1001D0004F935F936F937F938F939F93AF93BF934F
:1001E000EF93FF9380917800909179000E9497009F
:1001F000EAE7F0E0808180648083FF91EF91BF9116
:10020000AF919F918F917F916F915F914F913F91AE
:100210002F910F900BBE0F900FBE0F901F9018954F
:1002200087B18F6087B988B1807F88B98FEF84B933
:1002300083EA84BD81E085BD8FE787BD109206010A
:10024000089587BD089588B1807F886088B9089532
:1002500088B1807F816088B9089588B1807F88B92E
:10026000089588B1807F866088B908958DB38078BD
:100270008DBB8AB1807F8AB98DB18F708DB9E9E667
:10028000F0E080818260808380818E7F80838081A6
:100290008860808380818B7F808380818F7D808355
:1002A00080818061808380818068808380818F7B72
:1002B0008083EAE6F0E080818260808380818E7FA7
:1002C000808380818860808380818B7F8083808130
:1002D0008062808380818F7E80838DB38F678DBBAA
:1002E0008CB38F678CBB78940895FC01EE0FFF1FD1
:1002F000E80FF91FEE0FFF1FE25FFE4F52814381AF
:100300002181213039F5252F342FA901455E504038
:10031000423F510568F4FC01EE0FFF1F8E0F9F1F37
:10032000FC01EE0FFF1FE25FFE4F83E08083089524
:10033000215030402A3D3105A0F5FC01EE0FFF1F92
:100340008E0F9F1FFC01EE0FFF1FE25FFE4F84E048
:1003500080830895252F342FA901435352404531FE
:10036000510568F4FC01EE0FFF1F8E0F9F1FFC016B
:10037000EE0FFF1FE25FFE4F81E0808308952E5154
:1003800032402031310568F4FC01EE0FFF1F8E0F63
:100390009F1FFC01EE0FFF1FE25FFE4F82E0808394
:1003A00008958FEE90E00E945E0508950E949E04DD
:1003B000909392028093910208958091910290917E
:1003C0009202FC01EE0FFF1F8E0F9F1FFC01EE0F2C
:1003D000FF1FE25FFE4F81E0818308958091050158
:1003E000813099F48093040181E090E00E948906B5
:1003F000109204014A9919C00E948F0080910A014D
:1004000090910B010E947501089581E090E00E9497
:1004100089064A9B0AC08091910290919202909322
:100420000B0180930A010E948500089580918F023C
:10043000909190020E943D0580918F0290919002D0
:10044000009709F457C080910C0190910D01FC01B7
:10045000EE0FFF1F8E0F9F1FFC01EE0FFF1FE25FCD
:10046000FE4F8081823099F1833018F48130E9F5B4
:1004700005C0833081F08430C1F51BC08BEE90E065
:100480000E945E058091950290919602009769F511
:100490000E947A04089585EE90E00E945E058091A6
:1004A00095029091960286399105F9F40E947A049A
:1004B00008958AEE90E00E945E05809195029091E9
:1004C00096028233910589F40E947A04089580EEA1
:1004D00090E00E945E05809195029091960284368C
:1004E000910519F40E947A0408950E942D0181E07B
:1004F00080930601089580918F0290919002009759
:1005000039F484EF91E00E9489060E942D01FFCF0B
:1005100008951F920F920FB60F920BB60F921124EF
:100520002F933F934F935F936F937F938F939F93FB
:10053000AF93BF93EF93FF9381E090E00E94890611
:10054000489902C00E94D601FF91EF91BF91AF91EF
:100550009F918F917F916F915F914F913F912F91DB
:100560000F900BBE0F900FBE0F901F9018951F920B
:100570000F920FB60F920BB60F9211242F933F9349
:100580004F935F936F937F938F939F93AF93BF939B
:10059000EF93FF9381E090E00E948906499902C0A1
:1005A0000E94DD01FF91EF91BF91AF919F918F91DB
:1005B0007F916F915F914F913F912F910F900BBE63
:1005C0000F900FBE0F901F9018951F920F920FB6AD
:1005D0000F920BB60F9211242F933F934F935F937B
:1005E0006F937F938F939F93AF93BF93EF93FF93FB
:1005F0000E94EE01FF91EF91BF91AF919F918F917A
:100600007F916F915F914F913F912F910F900BBE12
:100610000F900FBE0F901F9018951F920F920FB65C
:100620000F920BB60F9211242F933F934F935F932A
:100630006F937F938F939F93AF93BF93EF93FF93AA
:1006400081E090E00E9489064B9902C00E94160248
:10065000FF91EF91BF91AF919F918F917F916F919A
:100660005F914F913F912F910F900BBE0F900FBE56
:100670000F901F9018951F920F920FB60F920BB606
:100680000F9211242F933F934F935F936F937F9318
:100690008F939F93AF93BF93EF93FF9381E090E08D
:1006A0000E948906649903C081E080939702FF91BC
:1006B000EF91BF91AF919F918F917F916F915F91DA
:1006C0004F913F912F910F900BBE0F900FBE0F9047
:1006D0001F9018951F920F920FB60F920BB60F92A4
:1006E00011242F933F934F935F936F937F938F9337
:1006F0009F93AF93BF93EF93FF9384E190E00E94A9
:100700008906659905C081E080938E020E947B0274
:10071000FF91EF91BF91AF919F918F917F916F91D9
:100720005F914F913F912F910F900BBE0F900FBE95
:100730000F901F9018951F920F920FB60F920BB645
:100740000F9211242F933F934F935F936F937F9357
:100750008F939F93AF93BF93EF93FF9384E190E0C8
:100760000E948906669904C086E090E00E943D05DB
:10077000FF91EF91BF91AF919F918F917F916F9179
:100780005F914F913F912F910F900BBE0F900FBE35
:100790000F901F901895E1E6F0E080E880831082CA
:1007A0000E94830688EE93E00E94890680E590E02F
:1007B0000E945E050E94540481E590E00E945E055F
:1007C0008FEF81B90E94360182E590E00E945E05BC
:1007D0000E948A0583E590E00E945E058091950263
:1007E00090919602009789F084E190E060E00E9489
:1007F0009E0580919502909196020E945E058091DF
:10080000950290919602009779F7109296021092B5
:100810009502109297020E946E0088EE93E00E946B
:1008200089060E94100184E590E00E945E050E9406
:100830002301CEE0D1E084E690E00E948906809119
:100840008F02909190020097B1F380910C019091EA
:100850000D01FC01EE0FFF1F8E0F9F1FFC01EE0F1D
:10086000FF1FEC0FFD1F8081823079F0833018F478
:10087000813009F705C0833069F08430E1F60FC09C
:1008800080E090E00E943F06D6CF84E690E00E9490
:100890003F06D1CF86E990E00E943F06CCCF82E3AD
:1008A00090E00E943F06C7CF10920D0110920C01FC
:1008B0001092090110920801109292021092910276
:1008C00010920B0110920A011092900210928F0266
:1008D0001092070110928E020895860F971F8034A0
:1008E00091051CF0805490400895992314F4805C85
:1008F0009F4F0895CF93DF93C0918F02D0919002C4
:100900002097C9F080910C0190910D0161E070E099
:100910000E946D0490930D0180930C012197D09358
:100920009002C0938F02209731F480918E02813023
:1009300011F40E947B02DF91CF910895CF93DF9352
:10094000C0918F02D0919002209749F480910C01C0
:1009500090910D0190930901809308010FC01C161E
:100960001D0664F4809108019091090161E070E036
:100970000E946D0490930901809308012196D09301
:100980009002C0938F028091080190910901FC01AF
:10099000EE0FFF1FE80FF91FEE0FFF1FE25FFE4F84
:1009A00020E034E033832283158214821182108286
:1009B000DF91CF910895873071F1883070F48330E2
:1009C00011F1843028F48130D1F18230D0F417C095
:1009D0008530E9F08630E8F418C08B3021F18C3096
:1009E00028F48930E1F08A30E0F417C08D30F9F056
:1009F0008D30D8F08E30E9F08F30F9F41CC08CEFD8
:100A000008958AED089582EF089586E6089586EBAD
:100A100008958EEB089580EE08958EEF089586EE8A
:100A200008958EEE08958EE308958CE908958AE77F
:100A300008958EE908958EE8089580E0089580E68F
:100A4000089520E030E090E062B1AC01022E02C0D7
:100A5000559547950A94E2F741704295440F440F2B
:100A6000407C562F5F7B452B42B9179A17982F5F12
:100A70003F4F2830310541F70895EF92FF920F93D1
:100A80001F93CF93DF93C3E0D0E00F2EFAE0EF2E59
:100A9000FF24F02DB7010E94AA06162F072F0E94EF
:100AA000DB040E942105812F902F219799F7DF9178
:100AB000CF911F910F91FF90EF900895EF92FF92C9
:100AC0000F931F93CF93DF93EC0103E010E0EE242C
:100AD000FF246894E4F8CE01B7010E94AA060E94A0
:100AE000DB040E942105CE01DD230CF40F96EC01FE
:100AF000D595C795D595C795D595C795D595C795DE
:100B00000150104041F7DF91CF911F910F91FF905D
:100B1000EF90089581B18F6381B910929402109281
:100B2000930282B1807C806382B91092970281E047
:100B300090E090939602809395020895CF93C62FEC
:100B40000E948906CC2381F58091930290919402B2
:100B5000019690939402809393028430910521F43E
:100B6000109294021092930282B1E0919302F0915C
:100B70009402E050FF4F807C9081892B82B9809154
:100B80009502909196020196909396028093950219
:100B900080919702813009F040C010929602109225
:100BA00095021092970239C080919302909194021D
:100BB000019790939402809393022FEF8F3F9207B7
:100BC00031F483E090E0909394028093930282B199
:100BD000E0919302F0919402E050FF4F807C90816D
:100BE000892B82B9809195029091960201979093FA
:100BF000960280939502992334F487EC90E09093C9
:100C000096028093950280919702813031F4109280
:100C100096021092950210929702CF91089586172E
:100C200097074CF4681B790B1AF4709561957F4F08
:100C3000862F972F0895861B970B9C0128533F4FB3
:100C40001AF4309521953F4F822F932F08956817FE
:100C500079074CF4681B790B1AF4709561957F4FF6
:100C6000862F972F0895861B970B9C0128533F4F83
:100C70001AF4309521953F4F822F932F0895EF92CC
:100C8000FF920F931F93CF93DF937C01C091950246
:100C9000D0919602C817D90779F1CE01B7010E9409
:100CA0000F068C01CE01B7010E942706081719070D
:100CB0006CF48FE090E060E00E949E0580919502C8
:100CC000909196028E159F05A1F70CC08FE090E0E1
:100CD00061E00E949E0580919502909196028E158A
:100CE0009F05A1F780910601813031F40E94230114
:100CF000109206010E941602DF91CF911F910F9171
:100D0000FF90EF900895E1E8F0E0808181608083BA
:100D100008959C01E1E8F0E0808188608083808113
:100D20008360808312161306A4F480E090E0E8E864
:100D3000F0E04DE750E0A4E8B0E051834083119625
:100D40001C921E92B19AB19BFECF01968217930717
:100D5000A1F7089597FB092E07260AD077FD04D046
:100D60000CD006D000201AF4709561957F4F08953D
:100D7000F6F7909581959F4F0895AA1BBB1B51E1F3
:100D800007C0AA1FBB1FA617B70710F0A61BB70BFB
:100D9000881F991F5A95A9F780959095BC01CD01A0
:060DA0000895F894FFCF56
:040DA60030062805E6
:00000001FF
