S0140000436F6E766579657242656C742E737265633E
S11300000C944C000C94AD000C94D7000C9401019A
S11300100C942B010C9455010C947F010C94A901B0
S11300200C946C000C946C000C946C000C946C009C
S11300300C946C000C946C000C946C000C946C008C
S11300400C946C000C946C000C946C000C946C007C
S11300500C946C000C946C000C946C000C946C006C
S11300600C946C000C946C000C946C000C946C005C
S11300700C946C000C946C000C946C000C946C004C
S11300800C946C000C946C000C946C000C946C003C
S11300900C946C000C946C0011241FBECFEFD0E2C2
S11300A0DEBFCDBF11E0A0E0B1E0E2E7F6E000E0A2
S11300B00BBF02C007900D92A030B107D9F71BBE49
S11300C012E0A0E0B1E001C01D92A434B107E1F751
S11300D00E94D3010C9437030C9400008DB38078F4
S11300E08DBB8AB1807F8AB98DB18F708DB9E9E6F5
S11300F0F0E080818260808380818E7F8083808134
S11301008860808380818B7F808380818F7D8083E2
S113011080818061808380818068808380818F7BFF
S11301208083EAE6F0E080818260808380818E7F34
S1130130808380818860808380818B7F80838081BD
S11301408062808380818F7E80838DB38F678DBB37
S11301508CB38F678CBB789408951F920F920FB65F
S11301600F920BB60F9211242F933F934F935F93EB
S11301706F937F938F939F93AF93BF93EF93FF936B
S113018080E090E00E949C02FF91EF91BF91AF91BB
S11301909F918F917F916F915F914F913F912F919B
S11301A00F900BBE0F900FBE0F901F9018951F92CB
S11301B00F920FB60F920BB60F9211242F933F9309
S11301C04F935F936F937F938F939F93AF93BF935B
S11301D0EF93FF9381E090E00E949C02FF91EF91E6
S11301E0BF91AF919F918F917F916F915F914F914B
S11301F03F912F910F900BBE0F900FBE0F901F9049
S113020018951F920F920FB60F920BB60F921124EE
S11302102F933F934F935F936F937F938F939F930A
S1130220AF93BF93EF93FF9382E090E00E949C0210
S1130230FF91EF91BF91AF919F918F917F916F91BA
S11302405F914F913F912F910F900BBE0F900FBE76
S11302500F901F9018951F920F920FB60F920BB626
S11302600F9211242F933F934F935F936F937F9338
S11302708F939F93AF93BF93EF93FF9383E090E0AB
S11302800E949C02FF91EF91BF91AF919F918F913A
S11302907F916F915F914F913F912F910F900BBE82
S11302A00F900FBE0F901F9018951F920F920FB6CC
S11302B00F920BB60F9211242F933F934F935F939A
S11302C06F937F938F939F93AF93BF93EF93FF931A
S11302D084E090E00E949C02FF91EF91BF91AF9166
S11302E09F918F917F916F915F914F913F912F914A
S11302F00F900BBE0F900FBE0F901F9018951F927A
S11303000F920FB60F920BB60F9211242F933F93B7
S11303104F935F936F937F938F939F93AF93BF9309
S1130320EF93FF9385E090E00E949C02FF91EF9190
S1130330BF91AF919F918F917F916F915F914F91F9
S11303403F912F910F900BBE0F900FBE0F901F90F7
S113035018951F920F920FB60F920BB60F9211249D
S11303602F933F934F935F936F937F938F939F93B9
S1130370AF93BF93EF93FF9386E090E00E949C02BB
S1130380FF91EF91BF91AF919F918F917F916F9169
S11303905F914F913F912F910F900BBE0F900FBE25
S11303A00F901F901895E1E6F0E080E880831082BA
S11303B00E94E9028FEF81B9CCE3D0E008C0CE01FE
S11303C00E949C0288EE93E00E94EF0221971C1683
S11303D01D06ACF380E09BE00E94BD0280ED97E037
S11303E00E94EF02CCE3D0E0F2CF1092030110920E
S11303F0020110920101109200010895860F971FC7
S1130400803491051CF0805490400895992314F48D
S1130410805C9F4F08958091020190910301209187
S11304200001309101012817390741F061E070E0C3
S11304300E94FE019093030180930201089580912C
S113044000019091010161E070E00E94FE0190932F
S1130450010180930001FC01EE0FFF1FEE0FFF1F4F
S1130460E80FF91FEC5FFE4F12821482138211828F
S113047010820895873071F1883070F4833011F15F
S1130480843028F48130D1F18230D0F417C0853023
S1130490E9F08630E8F418C08B3021F18C3028F470
S11304A08930E1F08A30E0F417C08D30F9F08D30F6
S11304B0D8F08E30E9F08F30F9F41CC08CEF089539
S11304C08AED089582EF089586E6089586EB0895EF
S11304D08EEB089580EE08958EEF089586EE0895CC
S11304E08EEE08958EE308958CE908958AE70895C1
S11304F08EE908958EE8089580E0089580E60895D1
S113050020E030E090E062B1AC01022E02C05595CB
S113051047950A94E2F741704295440F440F407C9A
S1130520562F5F7B452B42B9179A17982F5F3F4F81
S11305302830310541F70895EF92FF920F931F93EE
S1130540CF93DF93C3E0D0E00F2EFAE0EF2EFF2429
S1130550F02DB7010E941003162F072F0E943A02B4
S11305600E948002812F902F219799F7DF91CF91DC
S11305701F910F91FF90EF900895EF92FF920F93C8
S11305801F93CF93DF93EC0103E010E0EE24FF24EC
S11305906894E4F8CE01B7010E9410030E943A0265
S11305A00E948002CE01DD230CF40F96EC01D59558
S11305B0C795D595C795D595C795D595C795015038
S11305C0104041F7DF91CF911F910F91FF90EF9071
S11305D00895E1E8F0E080818160808308959C01C2
S11305E0E1E8F0E08081886080838081836080839B
S11305F012161306A4F480E090E0E8E8F0E04DE77A
S113060050E0A4E8B0E05183408311961C921E92FE
S1130610B19AB19BFECF019682179307A1F7089573
S113062097FB092E07260AD077FD04D00CD006D0FC
S113063000201AF4709561957F4F0895F6F7909510
S113064081959F4F0895AA1BBB1B51E107C0AA1FA8
S1130650BB1FA617B70710F0A61BB70B881F991F5F
S11306605A95A9F780959095BC01CD010895F89409
S1050670FFCFB6
S9030000FC
