:100000000C944C000C94C4020C94F2020C94200347
:100010000C9448030C9476030C94A5030C94D6031B
:100020000C946C000C946C000C946C000C946C00A0
:100030000C946C000C946C000C946C000C946C0090
:100040000C946C000C946C000C946C000C946C0080
:100050000C946C000C946C000C946C000C946C0070
:100060000C946C000C946C000C946C000C946C0060
:100070000C946C000C94DF000C946C000C946C00DD
:100080000C946C000C946C000C946C000C946C0040
:100090000C946C000C946C0011241FBECFEFD0E2C6
:1000A000DEBFCDBF11E0A0E0B1E0E6E1FFE000E09F
:1000B0000BBF02C007900D92A430B107D9F71BBE49
:1000C00011E0A4E0B1E001C01D92AA3AB107E1F746
:1000D0000E9401040C9489070C94000010BAEAE70E
:1000E000F0E0808180688083808188608083808167
:1000F00087608083ECE7F0E08081816480831092E8
:100100000501109204017894089581E0809305011F
:10011000EAE7F0E08081806480837894089510920B
:100120000501EAE7F0E080818F7B808308959C01E0
:1001300080910401813009F441C080916001909167
:100140006101FC01EE0FFF1FE80FF91FEE0FFF1F0B
:10015000EC59FE4F44815581483C51057CF5A9017D
:100160004253504063E04F3C560740F5FC01EE0F10
:10017000FF1FE80FF91FEE0FFF1FEC59FE4F4281E2
:100180005381241735075CF4FC01EE0FFF1FE80FC5
:10019000F91FEE0FFF1FEC59FE4F33832283FC0142
:1001A000EE0FFF1F8E0F9F1FFC01EE0FFF1FEC597C
:1001B000FE4F8481958101969583848308951F92D3
:1001C0000F920FB60F920BB60F9211242F933F93FD
:1001D0004F935F936F937F938F939F93AF93BF934F
:1001E000EF93FF9380917800909179000E9497009F
:1001F000EAE7F0E0808180648083FF91EF91BF9116
:10020000AF919F918F917F916F915F914F913F91AE
:100210002F910F900BBE0F900FBE0F901F9018954F
:1002200087B18F6087B988B1807F88B98FEF84B933
:1002300083EA84BD81E085BD8FE987BD1092060108
:10024000089587BD089588B1807F886088B9089532
:1002500088B1807F816088B9089588B1807F88B92E
:10026000089588B1807F866088B908958DB38078BD
:100270008DBB8AB1807F8AB98DB18F708DB9E9E667
:10028000F0E080818260808380818E7F80838081A6
:100290008860808380818B7F808380818F7D808355
:1002A00080818061808380818068808380818F7B72
:1002B0008083EAE6F0E080818260808380818E7FA7
:1002C000808380818860808380818B7F8083808130
:1002D0008062808380818F7E80838DB38F678DBBAA
:1002E0008CB38F678CBB78940895FC01EE0FFF1FD1
:1002F000E80FF91FEE0FFF1FEC59FE4F52814381AB
:100300002181213041F5252F342FA9014555514038
:10031000413D510568F4FC01EE0FFF1F8E0F9F1F3A
:10032000FC01EE0FFF1FEC59FE4F83E08083089520
:100330002650304041E026323407A0F5FC01EE0F94
:10034000FF1F8E0F9F1FFC01EE0FFF1FEC59FE4F8A
:1003500084E080830895252F342FA901415852400D
:100360004732510568F4FC01EE0FFF1F8E0F9F1FEF
:10037000FC01EE0FFF1FEC59FE4F81E080830895D2
:10038000295532402532310568F4FC01EE0FFF1F7C
:100390008E0F9F1FFC01EE0FFF1FEC59FE4F82E0F6
:1003A000808308958FEE90E00E9416060895809154
:1003B000A3019091A4012FEF8F3F920739F40E947F
:1003C00056059093A4018093A30108950E94D4043C
:1003D0000E9456059093A4018093A30108958091F3
:1003E000A3019091A4012FEF8F3F920761F0FC01D0
:1003F000EE0FFF1F8E0F9F1FFC01EE0FFF1FEC592A
:10040000FE4F81E08183089580910501813099F448
:100410008093040183E090E00E9441071092040160
:100420004A992CC00E948F008091600190916101D7
:100430000E947501089583E090E00E9441074A9B65
:100440001DC080910B0190910C01009779F480916F
:10045000A3019091A40190936101809360018FEFBB
:100460009FEF9093A4018093A30106C00E94A8046B
:1004700090936101809360010E94850008958091AE
:10048000A1019091A2010E94F5058091A101909196
:10049000A201009709F469C0809162019091630103
:1004A000FC01EE0FFF1F8E0F9F1FFC01EE0FFF1FC1
:1004B000EC59FE4F8081823099F1833018F48130FD
:1004C000E9F505C0833081F08430C1F51BC08BEEA7
:1004D00090E00E9416068091A7019091A8010097D4
:1004E00069F50E943205089585EE90E00E94160697
:1004F0008091A7019091A80186399105F9F40E9495
:10050000320508958AEE90E00E9416068091A701B8
:100510009091A8018233910589F40E9432050895D3
:1005200080EE90E00E9416068091A7019091A801AC
:100530008436910519F40E94320508950E942D0118
:100540008091620190916301FC01EE0FFF1F8E0FFD
:100550009F1FFC01EE0FFF1FEC59FE4F828193811C
:100560000E94F50581E08093060108958091A10124
:100570009091A201009739F484EF91E00E94410725
:100580000E942D01FFCF08951F920F920FB60F9278
:100590000BB60F9211242F933F934F935F936F935A
:1005A0007F938F939F93AF93BF93EF93FF9383E0DA
:1005B00090E00E944107489902C00E94D701FF9134
:1005C000EF91BF91AF919F918F917F916F915F91CB
:1005D0004F913F912F910F900BBE0F900FBE0F9038
:1005E0001F9018951F920F920FB60F920BB60F9295
:1005F00011242F933F934F935F936F937F938F9328
:100600009F93AF93BF93EF93FF9383E090E00E949B
:100610004107499902C00E94EF01FF91EF91BF91FC
:10062000AF919F918F917F916F915F914F913F918A
:100630002F910F900BBE0F900FBE0F901F9018952B
:100640001F920F920FB60F920BB60F9211242F9399
:100650003F934F935F936F937F938F939F93AF934A
:10066000BF93EF93FF930E940402FF91EF91BF911C
:10067000AF919F918F917F916F915F914F913F913A
:100680002F910F900BBE0F900FBE0F901F901895DB
:100690001F920F920FB60F920BB60F9211242F9349
:1006A0003F934F935F936F937F938F939F93AF93FA
:1006B000BF93EF93FF9383E090E00E9441074B9933
:1006C00002C00E943F02FF91EF91BF91AF919F91B5
:1006D0008F917F916F915F914F913F912F910F90EB
:1006E0000BBE0F900FBE0F901F9018951F920F9288
:1006F0000FB60F920BB60F9211242F933F934F9387
:100700005F936F937F938F939F93AF93BF93EF9379
:10071000FF9383E090E00E944107649903C081E069
:100720008093A901FF91EF91BF91AF919F918F911C
:100730007F916F915F914F913F912F910F900BBEE1
:100740000F900FBE0F901F9018951F920F920FB62B
:100750000F920BB60F9211242F933F934F935F93F9
:100760006F937F938F939F93AF93BF93EF93FF9379
:1007700084E190E00E944107659905C081E0809383
:10078000A0010E94B602FF91EF91BF91AF919F919E
:100790008F917F916F915F914F913F912F910F902A
:1007A0000BBE0F900FBE0F901F9018951F920F92C7
:1007B0000FB60F920BB60F9211242F933F934F93C6
:1007C0005F936F937F938F939F93AF93BF93EF93B9
:1007D000FF9384E190E00E9441078CB1FF91EF917B
:1007E000BF91AF919F918F917F916F915F914F9149
:1007F0003F912F910F900BBE0F900FBE0F901F9047
:100800001895E1E6F0E080E8808310820E943B07C3
:1008100088EE93E00E94410780E590E00E94160672
:100820000E940C050E948C0481E590E00E9416064F
:100830008FEF81B90E94360182E590E00E94160692
:100840000E94420683E590E00E9416068091A7016F
:100850009091A801009789F084E190E060E00E9407
:1008600056068091A7019091A8010E9416068091DA
:10087000A7019091A801009779F71092A801109212
:10088000A7011092A9010E946E0088EE93E00E94D9
:1008900041070E94100184E590E00E9416060E9424
:1008A0002301C4E6D1E084E690E00E9441078091F4
:1008B000A1019091A2010097B1F380916201909102
:1008C0006301FC01EE0FFF1F8E0F9F1FFC01EE0F57
:1008D000FF1FEC0FFD1F8081823079F0833018F408
:1008E000813009F705C0833069F08430E1F60FC02C
:1008F00080E090E00E94F706D6CF84E690E00E9468
:10090000F706D1CF86E990E00E94F706CCCF82E3CC
:1009100090E00E94F706C7CF1092080110920701DD
:1009200010920A011092090110920C0110920B0111
:1009300010920E0110920D010895860F971F8832B4
:10094000910514F08897089599230CF488960895DA
:100950000F931F93CF93DF93C0910B01D0910C01A4
:100960002097C9F08091070190910801FC01EE0FDA
:10097000FF1FE35FFE4F0081118161E070E00E9484
:100980009D0490930801809307012197D0930C0157
:10099000C0930B0102C00FEF1FEF802F912FDF914B
:1009A000CF911F910F9108950F931F93CF93DF93D2
:1009B0008C01C0910B01D0910C01209749F48091DA
:1009C00007019091080190930A01809309010FC0DB
:1009D0001C161D0664F48091090190910A0161E0E2
:1009E00070E00E949D0490930A0180930901219672
:1009F000D0930C01C0930B018091090190910A01E1
:100A0000FC01EE0FFF1FE35FFE4F11830083DF91B8
:100A1000CF911F910F91089510926301109262017E
:100A200010925F0110925E018FEF9FEF9093A401EF
:100A30008093A30110926101109260011092A201B3
:100A40001092A10110925D011092A0010895860FED
:100A5000971F8A30910514F00A97089599230CF492
:100A60000A960895CF93DF93C091A101D091A2017E
:100A70002097C9F0809162019091630161E070E07C
:100A80000E94270590936301809362012197D09380
:100A9000A201C093A101209731F48091A00181307F
:100AA00011F40E94B602DF91CF910895CF93DF93A6
:100AB000C091A101D091A201209749F480916201D7
:100AC0009091630190935F0180935E010FC01C16AB
:100AD0001D0664F480915E0190915F0161E070E019
:100AE0000E94270590935F0180935E012196D09329
:100AF000A201C093A10180915E0190915F01FC0170
:100B0000EE0FFF1FE80FF91FEE0FFF1FEC59FE4F0E
:100B100020E034E033832283158214821182108214
:100B2000DF91CF910895873071F1883070F4833070
:100B300011F1843028F48130D1F18230D0F417C023
:100B40008530E9F08630E8F418C08B3021F18C3024
:100B500028F48930E1F08A30E0F417C08D30F9F0E4
:100B60008D30D8F08E30E9F08F30F9F41CC08CEF66
:100B700008958AED089582EF089586E6089586EB3C
:100B800008958EEB089580EE08958EEF089586EE19
:100B900008958EEE08958EE308958CE908958AE70E
:100BA00008958EE908958EE8089580E0089580E61E
:100BB000089520E030E090E062B1AC01022E02C066
:100BC000559547950A94E2F741704295440F440FBA
:100BD000407C562F5F7B452B42B9179A17982F5FA1
:100BE0003F4F2830310541F70895EF92FF920F9360
:100BF0001F93CF93DF93C3E0D0E00F2EFAE0EF2EE8
:100C0000FF24F02DB7010E946207162F072F0E94C4
:100C100093050E94D905812F902F219799F7DF9195
:100C2000CF911F910F91FF90EF900895EF92FF9257
:100C30000F931F93CF93DF93EC0103E010E0EE24BA
:100C4000FF246894E4F8CE01B7010E9462070E9475
:100C500093050E94D905CE01DD230CF40F96EC011B
:100C6000D595C795D595C795D595C795D595C7956C
:100C70000150104041F7DF91CF911F910F91FF90EC
:100C8000EF90089581B18F6381B91092A6011092FF
:100C9000A50182B1807C806382B91092A90181E0B4
:100CA00090E09093A8018093A7010895CF93C62F59
:100CB0000E944107CC2381F58091A5019091A60166
:100CC00001969093A6018093A5018430910521F4AB
:100CD0001092A6011092A50182B1E091A501F091B8
:100CE000A601E050FF4F807C9081892B82B98091D2
:100CF000A7019091A80101969093A8018093A70164
:100D00008091A901813009F040C01092A801109291
:100D1000A7011092A90139C08091A5019091A60167
:100D200001979093A6018093A5012FEF8F3F920723
:100D300031F483E090E09093A6018093A50182B105
:100D4000E091A501F091A601E050FF4F807C9081D9
:100D5000892B82B98091A7019091A8010197909366
:100D6000A8018093A701992334F487EC90E0909335
:100D7000A8018093A7018091A901813031F41092DC
:100D8000A8011092A7011092A901CF91089586178A
:100D900097074CF4681B790B1AF4709561957F4F97
:100DA000862F972F0895861B970B9C0128533F4F42
:100DB0001AF4309521953F4F822F932F089568178D
:100DC00079074CF4681B790B1AF4709561957F4F85
:100DD000862F972F0895861B970B9C0128533F4F12
:100DE0001AF4309521953F4F822F932F0895EF925B
:100DF000FF920F931F93CF93DF937C01C091A701C4
:100E0000D091A801C817D90779F1CE01B7010E9486
:100E1000C7068C01CE01B7010E94DF06081719072B
:100E20006CF48FE090E060E00E9456068091A7018C
:100E30009091A8018E159F05A1F70CC08FE090E05E
:100E400061E00E9456068091A7019091A8018E153D
:100E50009F05A1F780910601813031F40E942301A2
:100E6000109206010E943F02DF91CF911F910F91D6
:100E7000FF90EF900895E1E8F0E080818160808349
:100E800008959C01E1E8F0E08081886080838081A2
:100E90008360808312161306A4F480E090E0E8E8F3
:100EA000F0E04DE750E0A4E8B0E0518340831196B4
:100EB0001C921E92B19AB19BFECF019682179307A6
:100EC000A1F7089597FB092E07260AD077FD04D0D5
:100ED0000CD006D000201AF4709561957F4F0895CC
:100EE000F6F7909581959F4F0895AA1BBB1B51E182
:100EF00007C0AA1FBB1FA617B70710F0A61BB70B8A
:100F0000881F991F5A95A9F780959095BC01CD012E
:060F10000895F894FFCFE4
:040F16003006280574
:00000001FF
