S0140000436F6E766579657242656C742E737265633E
S11300000C944C000C940A020C9436020C94620278
S11300100C948E020C94BA020C94E7020C94110313
S11300200C946C000C946C000C946C000C946C009C
S11300300C946C000C946C000C946C000C946C008C
S11300400C946C000C946C000C946C000C946C007C
S11300500C946C000C946C000C946C000C946C006C
S11300600C946C000C946C000C946C000C946C005C
S11300700C946C000C94CD000C946C000C946C00EB
S11300800C946C000C946C000C946C000C946C003C
S11300900C946C000C946C0011241FBECFEFD0E2C2
S11300A0DEBFCDBF11E0A0E0B1E0E6ECFBE000E094
S11300B00BBF02C007900D92A430B107D9F71BBE45
S11300C012E0A4E0B1E001C01D92A635B107E1F74A
S11300D00E943B030C94E1050C94000010BAEAE77B
S11300E0F0E0808180688083808188608083808163
S11300F087608083ECE7F0E08081816680831092E2
S113010004017894089581E080930401EAE7F0E023
S11301108081806480837894089510920401EAE7D2
S1130120F0E080818F7B80830895AC018091090188
S113013090910A01FC01EE0FFF1FEE0FFF1FE80F65
S1130140F91FE35FFE4F6381748121E06D32720712
S11301501CF59A01285C304028333105E8F49C01F1
S1130160220F331F220F331F820F931FFC01E35F03
S1130170FE4F828190E0689F9001699F300D789FC7
S1130180300D11246F5F7F4F74836383C901840F23
S1130190951F0E94BA05628308951F920F920FB6AD
S11301A00F920BB60F9211242F933F934F935F93AB
S11301B06F937F938F939F93AF93BF93EF93FF932B
S11301C08091790090E00E949500EAE7F0E0808158
S11301D080648083FF91EF91BF91AF919F918F9144
S11301E07F916F915F914F913F912F910F900BBE33
S11301F00F900FBE0F901F90189587B18F6087B92D
S113020088B183708C6088B983EA84BD81E085BD40
S11302108FE787BD1092060110920501089587BDEE
S1130220089588B18770886088B9089588B18B7003
S1130230846088B9089588B183708C6088B9089502
S113024088B18C70836088B988B908958DB380783B
S11302508DBB8AB1807F8AB98DB18F708DB9E9E683
S1130260F0E080818260808380818E7F80838081C2
S11302708860808380818B7F808380818F7D808371
S113028080818061808380818068808380818F7B8E
S11302908083EAE6F0E080818260808380818E7FC3
S11302A0808380818860808380818B7F808380814C
S11302B08062808380818F7E80838DB38F678DBBC6
S11302C08CB38F678CBB78940895FC01EE0FFF1FED
S11302D0EE0FFF1FE80FF91FE35FFE4F2381348108
S11302E03323CCF0FC01EE0FFF1FEE0FFF1FE80FCE
S11302F0F91FE35FFE4F228121502E3F60F4FC0181
S1130300EE0FFF1FEE0FFF1F8E0F9F1FFC01E35F19
S1130310FE4F82E0808308950E94EC039093500284
S113032080934F02089580914F0290915002FC01F6
S1130330EE0FFF1FEE0FFF1F8E0F9F1FFC01E35FE9
S1130340FE4F81E08183089580910401813049F456
S11303500E948D008091090190910A010E9465011B
S1130360089580914F029091500290930A018093D6
S113037009010E948300089580914D0290914E02DC
S1130380009709F446C0FC01EE0FFF1FEE0FFF1F9C
S11303908E0F9F1FFC01E35FFE4F8081823039F195
S11303A0833018F4813069F505C0833061F08430FE
S11303B041F513C08091530290915402009709F5BE
S11303C00E94D0030895809153029091540286397B
S11303D09105B9F40E94D00308958091530290913D
S11303E054028233910569F40E94D00308958091E8
S11303F05302909154028436910519F40E94D0035B
S113040008950E941B0181E090E09093060180937F
S1130410050108951F920F920FB60F920BB60F921B
S113042011242F933F934F935F936F937F938F93F5
S11304309F93AF93BF93EF93FF9380E090E00E946C
S113044073040E948C01FF91EF91BF91AF919F9132
S11304508F917F916F915F914F913F912F910F9069
S11304600BBE0F900FBE0F901F9018951F920F9206
S11304700FB60F920BB60F9211242F933F934F9305
S11304805F936F937F938F939F93AF93BF93EF93F8
S1130490FF9381E090E00E9473040E949301FF9116
S11304A0EF91BF91AF919F918F917F916F915F91E8
S11304B04F913F912F910F900BBE0F900FBE0F9055
S11304C01F9018951F920F920FB60F920BB60F92B2
S11304D011242F933F934F935F936F937F938F9345
S11304E09F93AF93BF93EF93FF930E94A40182E085
S11304F090E00E947304FF91EF91BF91AF919F919F
S11305008F917F916F915F914F913F912F910F90B8
S11305100BBE0F900FBE0F901F9018951F920F9255
S11305200FB60F920BB60F9211242F933F934F9354
S11305305F936F937F938F939F93AF93BF93EF9347
S1130540FF930E94BC0183E090E00E947304FF913A
S1130550EF91BF91AF919F918F917F916F915F9137
S11305604F913F912F910F900BBE0F900FBE0F90A4
S11305701F9018951F920F920FB60F920BB60F9201
S113058011242F933F934F935F936F937F938F9394
S11305909F93AF93BF93EF93FF9381E080935502B2
S11305A084E090E00E947304FF91EF91BF91AF91BA
S11305B09F918F917F916F915F914F913F912F9177
S11305C00F900BBE0F900FBE0F901F9018951F92A7
S11305D00F920FB60F920BB60F9211242F933F93E5
S11305E04F935F936F937F938F939F93AF93BF9337
S11305F0EF93FF9385E090E00E947304FF91EF91E5
S1130600BF91AF919F918F917F916F915F914F9126
S11306103F912F910F900BBE0F900FBE0F901F9024
S113062018951F920F920FB60F920BB60F921124CA
S11306302F933F934F935F936F937F938F939F93E6
S1130640AF93BF93EF93FF9386E090E00E9473040F
S1130650FF91EF91BF91AF919F918F917F916F9196
S11306605F914F913F912F910F900BBE0F900FBE52
S11306700F901F901895E1E6F0E080E880831082E7
S11306800E9493058FEF81B90E9426018091550243
S1130690882349F489E190E060E00E94CD048091D0
S11306A055028823B9F31092540210925302109207
S11306B055020E946E000E94830088EE93E00E941F
S11306C099050E94FD000E941101CDE0D1E0409106
S11306D04D0250914E0280910B0190910C019C01AE
S11306E0220F331F220F331F820F931FFE01E80FC7
S11306F0F91F80811416150684F5823099F0833031
S113070018F48130B9F705C08330A9F0843091F72B
S11307101BC080E090E00E944B0584EF91E00E94B2
S11307209905D5CF84E690E00E944B0584EF91E0D3
S11307300E949905CCCF86E990E00E944B0584EF96
S113074091E00E949905C3CF82E390E00E944B059B
S113075084EF91E00E949905BACFFFCF10920C016B
S113076010920B011092080110920701109250028E
S113077010924F0210920A011092090110924E0237
S113078010924D020895860F971F803491051CF036
S1130790805490400895992314F4805C9F4F0895E9
S11307A0CF93DF93C0914D02D0914E02209789F0F0
S11307B080910B0190910C0161E070E00E94C303F1
S11307C090930C0180930B012197D0934E02C09318
S11307D04D02DF91CF910895809107019091080116
S11307E061E070E00E94C3039093080180930701C5
S11307F020914D0230914E022F5F3F4F30934E02B5
S113080020934D02FC01EE0FFF1FEE0FFF1FE80FB8
S1130810F91FE35FFE4F1282148213821182108249
S11308200895873071F1883070F4833011F1843089
S113083028F48130D1F18230D0F417C08530E9F04A
S11308408630E8F418C08B3021F18C3028F48930DC
S1130850E1F08A30E0F417C08D30F9F08D30D8F033
S11308608E30E9F08F30F9F41CC08CEF08958AEDD6
S1130870089582EF089586E6089586EB08958EEB39
S1130880089580EE08958EEF089586EE08958EEE15
S113089008958EE308958CE908958AE708958EE912
S11308A008958EE8089580E0089580E6089520E094
S11308B030E090E062B1AC01022E02C0559547953C
S11308C00A94E2F741704295440F440F407C562F3E
S11308D05F7B452B42B9179A17982F5F3F4F2830FB
S11308E0310541F70895EF92FF920F931F93CF9331
S11308F0DF93C3E0D0E00F2EFAE0EF2EFF24F02DBB
S1130900B7010E94BA05162F072F0E9411040E94F6
S11309105704812F902F219799F7DF91CF911F9141
S11309200F91FF90EF900895EF92FF920F931F9312
S1130930CF93DF93EC0103E010E0EE24FF246894EE
S1130940E4F8CE01B7010E94BA050E9411040E9486
S11309505704CE01DD230CF40F96EC01D595C79511
S1130960D595C795D595C795D595C7950150104090
S113097041F7DF91CF911F910F91FF90EF90089570
S113098081B18F6381B9109252021092510282B1E7
S1130990807F82B9109255020895CF93C62F0E948A
S11309A09905CC2311F58091510290915202019640
S11309B090935202809351028430910521F4109255
S11309C052021092510292B1E0915102F0915202FE
S11309D0E050FF4F8081806C892382B910925402C9
S11309E0109253021092550224C0809151029091AA
S11309F05202019790935202809351022FEF8F3F3E
S1130A00920731F483E090E0909352028093510274
S1130A1092B1E0915102F0915202E050FF4F808177
S1130A20806C892382B9109254021092530210925E
S1130A305502CF910895861797074CF4681B790BDC
S1130A401AF4709561957F4F862F972F0895861B12
S1130A50970B9C0128533F4F1AF4309521953F4F33
S1130A60822F932F0895681779074CF4681B790B2C
S1130A701AF4709561957F4F862F972F0895861BE2
S1130A80970B9C0128533F4F1AF4309521953F4F03
S1130A90822F932F0895EF92FF920F931F93CF937A
S1130AA0DF93EC01E0905302F0905402B7010E94EE
S1130AB01B058C01CE01B7010E943305EC01081718
S1130AC0190724F0181619067CF017C01016110621
S1130AD0A4F48FE090E060E00E94CD040F5F1F4F0C
S1130AE010161106B4F309C08FE090E060E00E9494
S1130AF0CD0421961C161D06BCF38091050190912E
S1130B0006018130910541F40E9411011092060101
S1130B10109205010E94BC01DF91CF911F910F91AA
S1130B20FF90EF900895E1E8F0E080818160808398
S1130B3008959C01E1E8F0E08081886080838081F1
S1130B408360808312161306A4F480E090E0E8E842
S1130B50F0E04DE750E0A4E8B0E051834083119603
S1130B601C921E92B19AB19BFECF019682179307F5
S1130B70A1F7089597FB092E07260AD077FD04D024
S1130B800CD006D000201AF4709561957F4F08951B
S1130B90F6F7909581959F4F0895AA1BBB1B51E1D1
S1130BA007C0AA1FBB1FA617B70710F0A61BB70BD9
S1130BB0881F991F5A95A9F780959095BC01CD017E
S1090BC00895F894FFCF34
S1070BC630062805C4
S9030000FC
