S0140000436F6E766579657242656C742E737265633E
S11300000C944C000C94B4010C94E0010C940C027C
S11300100C9438020C9462020C948F020C94B90272
S11300200C946C000C946C000C946C000C946C009C
S11300300C946C000C946C000C946C000C946C008C
S11300400C946C000C946C000C946C000C946C007C
S11300500C946C000C946C000C946C000C946C006C
S11300600C946C000C946C000C946C000C946C005C
S11300700C946C000C94CD000C946C000C946C00EB
S11300800C946C000C946C000C946C000C946C003C
S11300900C946C000C946C0011241FBECFEFD0E2C2
S11300A0DEBFCDBF11E0A0E0B1E0E8EBF9E000E095
S11300B00BBF02C007900D92A430B107D9F71BBE45
S11300C012E0A4E0B1E001C01D92A235B107E1F74E
S11300D00E94E3020C94DA040C94000010BAEAE7DC
S11300E0F0E0808180688083808188608083808163
S11300F087608083ECE7F0E08081816680831092E2
S113010004017894089581E080930401EAE7F0E023
S11301108081806480837894089510920401EAE7D2
S1130120F0E080818F7B80830895AC01809107018A
S113013090910801FC01EE0FFF1FEE0FFF1FE80F67
S1130140F91FE55FFE4F6381748121E06D32720710
S11301501CF59A01285C304028333105E8F49C01F1
S1130160220F331F220F331F820F931FFC01E55F01
S1130170FE4F828190E0689F9001699F300D789FC7
S1130180300D11246F5F7F4F74836383C901840F23
S1130190951F0E94B304628308951F920F920FB6B5
S11301A00F920BB60F9211242F933F934F935F93AB
S11301B06F937F938F939F93AF93BF93EF93FF932B
S11301C08091790090E00E949500EAE7F0E0808158
S11301D080648083FF91EF91BF91AF919F918F9144
S11301E07F916F915F914F913F912F910F900BBE33
S11301F00F900FBE0F901F90189587B18F6087B92D
S113020088B183708C6088B983EA84BD81E085BD40
S11302108FE787BD089587BD089588B1877088608A
S113022088B9089588B18B70846088B9089588B1BD
S11302308C70836088B988B908958DB380788DBB3C
S11302408AB1807F8AB98DB18F708DB9E9E6F0E00B
S113025080818260808380818E7F808380818860BA
S1130260808380818B7F808380818F7D8083808168
S11302708061808380818068808380818F7B80839C
S1130280EAE6F0E080818260808380818E7F8083D3
S113029080818860808380818B7F8083808180627D
S11302A0808380818F7E80838DB38F678DBB8CB379
S11302B08F678CBB78940895FC01EE0FFF1FEE0F3F
S11302C0FF1FE80FF91FE55FFE4F238134813323BD
S11302D0CCF0FC01EE0FFF1FEE0FFF1FE80FF91F1C
S11302E0E55FFE4F228121502E3F60F4FC01EE0FAA
S11302F0FF1FEE0FFF1F8E0F9F1FFC01E55FFE4FD8
S113030082E0808308950E943C0390934C02809382
S11303104B02089580914B0290914C02FC01EE0F28
S1130320FF1FEE0FFF1F8E0F9F1FFC01E55FFE4FA7
S113033081E08183089580910401813049F40E9411
S11303408D0080910701909108010E945C0108953D
S113035080914B0290914C02909308018093070185
S11303600E948300089508951F920F920FB60F9272
S11303700BB60F9211242F933F934F935F936F9378
S11303807F938F939F93AF93BF93EF93FF9380E0FB
S113039090E00E94B9030E948301FF91EF91BF9105
S11303A0AF919F918F917F916F915F914F913F9109
S11303B02F910F900BBE0F900FBE0F901F901895AA
S11303C01F920F920FB60F920BB60F9211242F9318
S11303D03F934F935F936F937F938F939F93AF93C9
S11303E0BF93EF93FF9381E090E00E94B9030E94D2
S11303F08A01FF91EF91BF91AF919F918F917F916E
S11304006F915F914F913F912F910F900BBE0F9081
S11304100FBE0F901F9018951F920F920FB60F9258
S11304200BB60F9211242F933F934F935F936F93C7
S11304307F938F939F93AF93BF93EF93FF930E9408
S11304409B0182E090E00E94B903FF91EF91BF917C
S1130450AF919F918F917F916F915F914F913F9158
S11304602F910F900BBE0F900FBE0F901F901895F9
S11304701F920F920FB60F920BB60F9211242F9367
S11304803F934F935F936F937F938F939F93AF9318
S1130490BF93EF93FF9383E090E00E94B903FF9131
S11304A0EF91BF91AF919F918F917F916F915F91E8
S11304B04F913F912F910F900BBE0F900FBE0F9055
S11304C01F9018951F920F920FB60F920BB60F92B2
S11304D011242F933F934F935F936F937F938F9345
S11304E09F93AF93BF93EF93FF9381E08093510267
S11304F084E090E00E94B903FF91EF91BF91AF9126
S11305009F918F917F916F915F914F913F912F9127
S11305100F900BBE0F900FBE0F901F9018951F9257
S11305200F920FB60F920BB60F9211242F933F9395
S11305304F935F936F937F938F939F93AF93BF93E7
S1130540EF93FF9385E090E00E94B903FF91EF9150
S1130550BF91AF919F918F917F916F915F914F91D7
S11305603F912F910F900BBE0F900FBE0F901F90D5
S113057018951F920F920FB60F920BB60F9211247B
S11305802F933F934F935F936F937F938F939F9397
S1130590AF93BF93EF93FF9386E090E00E94B9037B
S11305A0FF91EF91BF91AF919F918F917F916F9147
S11305B05F914F913F912F910F900BBE0F900FBE03
S11305C00F901F901895E1E6F0E080E88083108298
S11305D00E948C048FEF81B90E941D018091510209
S11305E0882349F489E190E060E00E94130480913B
S11305F051028823B9F31092500210924F021092C4
S113060051020E946E000E94830084E690E00E94E2
S11306109204FFCF10920A01109209011092060170
S11306201092050110924C0210924B021092080194
S1130630109207010895860F971F803491051CF0CE
S1130640805490400895992314F4805C9F4F08953A
S11306508091090190910A012091050130910601D0
S11306602817390741F061E070E00E941B03909362
S11306700A01809309010895809105019091060172
S113068061E070E00E941B039093060180930501D2
S1130690FC01EE0FFF1FEE0FFF1FE80FF91FE55FD0
S11306A0FE4F1282148213821182108208958730C1
S11306B071F1883070F4833011F1843028F4813082
S11306C0D1F18230D0F417C08530E9F08630E8F4F7
S11306D018C08B3021F18C3028F48930E1F08A3055
S11306E0E0F417C08D30F9F08D30D8F08E30E9F099
S11306F08F30F9F41CC08CEF08958AED089582EFD1
S1130700089586E6089586EB08958EEB089580EEAD
S113071008958EEF089586EE08958EEE08958EE383
S113072008958CE908958AE708958EE908958EE87E
S1130730089580E0089580E6089520E030E090E098
S113074062B1AC01022E02C0559547950A94E2F7B6
S113075041704295440F440F407C562F5F7B452BDC
S113076042B9179A17982F5F3F4F2830310541F748
S11307700895EF92FF920F931F93CF93DF93C3E0FB
S1130780D0E00F2EFAE0EF2EFF24F02DB7010E94E7
S1130790B304162F072F0E9457030E949D03812F35
S11307A0902F219799F7DF91CF911F910F91FF908F
S11307B0EF900895EF92FF920F931F93CF93DF93DF
S11307C0EC0103E010E0EE24FF246894E4F8CE0189
S11307D0B7010E94B3040E9457030E949D03CE01F7
S11307E0DD230CF40F96EC01D595C795D595C795E7
S11307F0D595C795D595C7950150104041F7DF9120
S1130800CF911F910F91FF90EF90089581B18F6365
S113081081B910924E0210924D0282B1807F82B94A
S1130820109251020895CF93C62F0E949204CC23B4
S113083011F580914D0290914E02019690934E02D3
S113084080934D028430910521F410924E0210924F
S11308504D0292B1E0914D02F0914E02E050FF4FF3
S11308608081806C892382B91092500210924F02C9
S11308701092510224C080914D0290914E02019732
S113088090934E0280934D022FEF8F3F920731F4E5
S113089083E090E090934E0280934D0292B1E091F8
S11308A04D02F0914E02E050FF4F8081806C89230D
S11308B082B91092500210924F0210925102CF91BD
S11308C00895FF920F931F93CF93DF93EC01209130
S11308D04F0230915002FF24F394281739070CF487
S11308E0FF24C21BD30B1AF4D095C195DF4F1C16FD
S11308F01D0664F400E010E08FE090E06F2D0E948C
S113090013040F5F1F4F0C171D07B1F7DF91CF9131
S11309101F910F91FF900895E1E8F0E080818160DC
S1130920808308959C01E1E8F0E080818860808301
S113093080818360808312161306A4F480E090E023
S1130940E8E8F0E04DE750E0A4E8B0E051834083EC
S113095011961C921E92B19AB19BFECF01968217FA
S11309609307A1F7089597FB092E07260AD077FD70
S113097004D00CD006D000201AF4709561957F4FF6
S11309800895F6F7909581959F4F0895AA1BBB1B78
S113099051E107C0AA1FBB1FA617B70710F0A61B7B
S11309A0B70B881F991F5A95A9F780959095BC019C
S10B09B0CD010895F894FFCF76
S10709B830062805D4
S9030000FC
