S0140000436F6E766579657242656C742E737265633E
S11300000C944C000C944E030C9484030C94BA038B
S11300100C94E2030C9418040C944F040C947E0486
S11300200C946C000C946C000C946C000C946C009C
S11300300C946C000C946C000C946C000C946C008C
S11300400C946C000C946C000C946C000C946C007C
S11300500C946C000C946C000C946C000C946C006C
S11300600C946C000C946C000C946C000C946C005C
S11300700C946C000C94D9000C946C000C946C00DF
S11300800C946C000C946C000C946C000C946C003C
S11300900C946C000C946C0011241FBECFEFD0E2C2
S11300A0DEBFCDBF11E0A0E0B1E0ECECF5E100E093
S11300B00BBF02C007900D92A430B107D9F71BBE45
S11300C014E0A4E0B1E001C01D92A035B107E1F74E
S11300D00E94AC040C94E40A0C94000010BAEAE701
S11300E0F0E0808180688083808188608083808163
S11300F087608083ECE7F0E08081816480831092E4
S113010004017894089581E080930401EAE7F0E023
S11301108081806480837894089510920401EAE7D2
S1130120F0E080818F7B808308959C018091DA01C7
S11301309091DB01FC01EE0FFF1FE80FF91FEE0F9A
S1130140FF1FE252FE4F4481558163E0483E56074B
S11301507CF5A9014150504064E04030560740F519
S1130160FC01EE0FFF1FE80FF91FEE0FFF1FE25215
S1130170FE4F42815381241735075CF4FC01EE0FD6
S1130180FF1FE80FF91FEE0FFF1FE252FE4F3383EC
S11301902283FC01EE0FFF1F8E0F9F1FFC01EE0F49
S11301A0FF1FE252FE4F84819581019695838483DB
S11301B008951F920F920FB60F920BB60F9211244F
S11301C02F933F934F935F936F937F938F939F935B
S11301D0AF93BF93EF93FF93809178009091790050
S11301E00E949500EAE7F0E0808180648083FF91BB
S11301F0EF91BF91AF919F918F917F916F915F919B
S11302004F913F912F910F900BBE0F900FBE0F9007
S11302101F90189587B18F6087B988B1807F88B99E
S11302208FEF84B983EA84BD81E085BD8FE987BD02
S11302301092060110920701109208011092050114
S1130240089587BD089588B1807F886088B981E06A
S113025080930801089588B1807F816088B982E025
S113026080930801089588B1807F88B910920801AD
S1130270089588B1807F866088B983E080930801FF
S113028008958DB380788DBB8AB1807F8AB98DB192
S11302908F708DB9E9E6F0E080818260808380818F
S11302A08E7F808380818860808380818B7F808340
S11302B080818F7D8083808180618083808180685C
S11302C0808380818F7B8083EAE6F0E08081826096
S11302D0808380818E7F8083808188608083808119
S11302E08B7F808380818062808380818F7E808306
S11302F08DB38F678DBB8CB38F678CBB7894089557
S1130300FC01EE0FFF1FE80FF91FEE0FFF1FE25273
S1130310FE4F528143812181213041F5252F342F15
S1130320A9014456504062E04D3B560768F4FC0175
S1130330EE0FFF1F8E0F9F1FFC01EE0FFF1FE252F7
S1130340FE4F83E0808308952E51304027343105D9
S113035098F5FC01EE0FFF1F8E0F9F1FFC01EE0F9F
S1130360FF1FE252FE4F84E080830895252F342F2F
S1130370A9014D5953404C34510568F4FC01EE0F6A
S1130380FF1F8E0F9F1FFC01EE0FFF1FE252FE4F57
S113039081E080830895285433402C34310560F47F
S11303A0FC01EE0FFF1F8E0F9F1FFC01EE0FFF1FBE
S11303B0E252FE4F82E0808308958091430490913D
S11303C044042FEF8F3F920739F40E94D106909393
S11303D044048093430408950E943C060E94D1067D
S11303E0909344048093430408958091430490912E
S11303F044042FEF8F3F920761F0FC01EE0FFF1FC3
S11304008E0F9F1FFC01EE0FFF1FE252FE4F81E093
S113041081830895CF93DF9380910401813099F40F
S1130420C8E0D0E08AEF90E00E94860A4A9932C080
S11304302197C1F70E948D008091DA019091DB0130
S11304400E94800127C0C8E0D0E08AEF90E00E94BB
S1130450860A4A9B1FC02197C1F780910D01909194
S11304600E01009779F48091430490914404909391
S1130470DB018093DA018FEF9FEF90934404809324
S1130480430406C00E940D069093DB018093DA01B9
S11304900E948300DF91CF91089580913F04909151
S11304A04004009739F484EF91E00E949C0A0E9472
S11304B03301FFCF08958091D701813019F510924F
S11304C0D70180910501813039F0813058F08230B4
S11304D031F0833061F409C00E94230108C00E94F6
S11304E02B0105C00E94330102C00E943901809192
S11304F00701882381F00E94A5060E94230110921F
S11305000701089580910801809305010E94330139
S113051081E08093D701089580913F049091400435
S1130520009709F4BAC08091D701813009F4B5C0AD
S11305308091DC019091DD01FC01EE0FFF1F8E0F15
S11305409F1FFC01EE0FFF1FE252FE4F808182309D
S113055009F46EC0833038F4882309F488C08130EC
S113056009F096C006C0833019F1843009F090C0B8
S11305703FC080914B0490914C04009709F088C0CF
S113058080913B0490913C04019690933C048093A9
S11305903B0420914104309142042F5F3F4F30933C
S11305A04204209341040E9420080E94A506089555
S11305B080914B0490914C048639910509F068C0F0
S11305C08091360490913704019690933704809378
S11305D0360420914104309142042F5F3F4F309301
S11305E04204209341040E94FC070E94A50608953A
S11305F080914B0490914C048233910509F048C0DA
S11306008091380490913904019690933904809331
S1130610380420914104309142042F5F3F4F3093BE
S11306204204209341040E94D8070E94A50608951D
S113063080914B0490914C048436910549F5809146
S11306403D0490913E04019690933E0480933D04B2
S113065020914104309142042F5F3F4F3093420474
S1130660209341040E9444080E94A506089580EF47
S113067090E00E946507609B03C00E94A506089550
S113068081E0809307010E9433010E945B02089578
S11306900E94330181E08093060108951F920F9216
S11306A00FB60F920BB60F9211242F933F934F93D3
S11306B05F936F937F938F939F93AF93BF93CF93E6
S11306C0DF93EF93FF93C8E0D0E08AEF90E00E94BD
S11306D0860A489904C02197C1F70E94DD01FF9161
S11306E0EF91DF91CF91BF91AF919F918F917F91C6
S11306F06F915F914F913F912F910F900BBE0F908F
S11307000FBE0F901F9018951F920F920FB60F9265
S11307100BB60F9211242F933F934F935F936F93D4
S11307207F938F939F93AF93BF93CF93DF93EF9375
S1130730FF93C8E0D0E08AEF90E00E94860A4999CE
S113074004C02197C1F70E94F501FF91EF91DF9159
S1130750CF91BF91AF919F918F917F916F915F9155
S11307604F913F912F910F900BBE0F900FBE0F90A2
S11307701F9018951F920F920FB60F920BB60F92FF
S113078011242F933F934F935F936F937F938F9392
S11307909F93AF93BF93EF93FF930E940A02FF913D
S11307A0EF91BF91AF919F918F917F916F915F91E5
S11307B04F913F912F910F900BBE0F900FBE0F9052
S11307C01F9018951F920F920FB60F920BB60F92AF
S11307D011242F933F934F935F936F937F938F9342
S11307E09F93AF93BF93CF93DF93EF93FF93C8E0AF
S11307F0D0E08AEF90E00E94860A4B9904C02197CA
S1130800C1F70E948C02FF91EF91DF91CF91BF91CC
S1130810AF919F918F917F916F915F914F913F9194
S11308202F910F900BBE0F900FBE0F901F90189535
S11308301F920F920FB60F920BB60F9211242F93A3
S11308403F934F935F936F937F938F939F93AF9354
S1130850BF93CF93DF93EF93FF93C8E0D0E08AEF89
S113086090E00E94860A649905C02197C1F781E04F
S113087080934F04FF91EF91DF91CF91BF91AF919E
S11308809F918F917F916F915F914F913F912F91A4
S11308900F900BBE0F900FBE0F901F9018951F92D4
S11308A00F920FB60F920BB60F9211242F933F9312
S11308B04F935F936F937F938F939F93AF93BF9364
S11308C0EF93FF9384E190E00E949C0A659903C032
S11308D081E080933A04FF91EF91BF91AF919F9192
S11308E08F917F916F915F914F913F912F910F90D5
S11308F00BBE0F900FBE0F901F9018951F920F9272
S11309000FB60F920BB60F9211242F933F934F9370
S11309105F936F937F938F939F93AF93BF93EF9363
S1130920FF9384E190E00E949C0A669902C00E94B1
S11309305B02FF91EF91BF91AF919F918F917F9156
S11309406F915F914F913F912F910F900BBE0F903C
S11309500FBE0F901F901895E1E6F0E080E88083C9
S113096010820E94800A80E590E00E9489080E941B
S113097069060E94EF0581E590E00E9489088FEFE7
S113098081B90E94410182E590E00E9489080E9499
S1130990B50883E590E00E94890880914B0490910A
S11309A04C04009789F084E190E060E00E94C9085B
S11309B080914B0490914C040E94890880914B04CF
S11309C090914C04009779F710924C0410924B04C8
S11309D010924F040E946E0088EE93E00E949C0ADD
S11309E00E940A0184E590E00E9489080E94230184
S11309F0CEEDD1E080913A04882331F088E893E188
S1130A000E949C0A0E944D028091D701813009F016
S1130A10AAC08091DC019091DD01FC01EE0FFF1F63
S1130A208E0F9F1FFC01EE0FFF1FEC0FFD1F828135
S1130A3093810E94680880ED97E00E949C0A80914F
S1130A40D701882309F48FC08091DC019091DD01E6
S1130A50FC01EE0FFF1F8E0F9F1FFC01EE0FFF1F07
S1130A60EC0FFD1F818190E00E94680880ED97E003
S1130A700E949C0A8091D701882309F474C0809154
S1130A804104909142040E94900780ED97E00E94F7
S1130A909C0A8091D701882309F465C080913F04A2
S1130AA0909140040E94B40780ED97E00E949C0A54
S1130AB08091D701882309F456C08091DC0190917C
S1130AC0DD010E94680880ED97E00E949C0A8091F5
S1130AD0D701882309F447C08091D8019091D901A6
S1130AE00E94680880ED97E00E949C0A8091D701DB
S1130AF08823C9F180913D0490913E040E944408EA
S1130B0080ED97E00E949C0A8091D701882359F1D7
S1130B1080913B0490913C040E94200880ED97E072
S1130B200E949C0A8091D7018823E9F080913604C1
S1130B30909137040E94FC0780ED97E00E949C0A84
S1130B408091D701882379F08091380490913904F9
S1130B500E94D80780ED97E00E949C0A8091D701FB
S1130B60813009F456CF84E690E00E949C0A80917B
S1130B703F0490914004009709F43CCF8091DC013C
S1130B809091DD01FC01EE0FFF1F8E0F9F1FFC01F2
S1130B90EE0FFF1FEC0FFD1F8081823089F0833040
S1130BA020F4813009F026CF06C0833071F0843000
S1130BB009F020CF0FC080E090E00E9487091ACF8F
S1130BC084E690E00E94870915CF86E990E00E94B0
S1130BD0870910CF82E390E00E9487090BCF10921F
S1130BE00A011092090110920C0110920B0110924B
S1130BF00E0110920D011092100110920F01089530
S1130C00860F971F843691051CF0845690400895F2
S1130C10992314F48C599F4F08950F931F93CF93E6
S1130C20DF93C0910D01D0910E012097E1F08091E6
S1130C30090190910A01FC01EE0FFF1FE15FFE4FD5
S1130C4000811181C230D10544F061E070E00E945E
S1130C50000690930A01809309012197D0930E0115
S1130C60C0930D0102C00FEF1FEF802F912FDF9172
S1130C70CF911F910F9108950F931F93CF93DF93FB
S1130C808C01C0910D01D0910E011C161D0664F457
S1130C9080910B0190910C0161E070E00E940006CC
S1130CA090930C0180930B012196D0930E01C09375
S1130CB00D0180910B0190910C01FC01EE0FFF1FBF
S1130CC0E15FFE4F11830083DF91CF911F910F915C
S1130CD008951092DD011092DC011092D901109256
S1130CE0D8018FEF9FEF90934404809343041092B4
S1130CF0DB011092DA011092400410923F0410922A
S1130D00D70110923A0410924204109241041092B6
S1130D103E0410923D0410923C0410923B04109245
S1130D20370410923604109239041092380408954E
S1130D30860F971F843691051CF0845690400895C1
S1130D40992314F48C599F4F0895CF93DF93C09146
S1130D503F04D0914004209709F1C130D10529F412
S1130D601092400410923F0413C08091DC019091D2
S1130D70DD0161E070E00E9498069093DD018093AC
S1130D80DC012197D0934004C0933F04209731F4B1
S1130D9080913A04813011F40E944D02DF91CF9189
S1130DA00895CF93DF93C0913F04D09140041C1663
S1130DB01D0664F48091D8019091D90161E070E03E
S1130DC00E9498069093D9018093D8012196D093DC
S1130DD04004C0933F048091D8019091D901FC0153
S1130DE0EE0FFF1FE80FF91FEE0FFF1FE252FE4F39
S1130DF020E034E03383228315821482118210822E
S1130E00DF91CF910895873071F1883070F4833089
S1130E1011F1843028F48130D1F18230D0F417C03C
S1130E208530E9F08630E8F418C08B3021F18C303D
S1130E3028F48930E1F08A30E0F417C08D30F9F0FD
S1130E408D30D8F08E30E9F08F30F9F41CC08CEF7F
S1130E5008958AED089582EF089586E6089586EB55
S1130E6008958EEB089580EE08958EEF089586EE32
S1130E7008958EEE08958EE308958CE908958AE727
S1130E8008958EE908958EE8089580E0089580E637
S1130E90089520E030E090E062B1AC01022E02C07F
S1130EA0559547950A94E2F741704295440F440FD3
S1130EB0407C562F5F7B452B42B9179A17982F5FBA
S1130EC03F4F2830310541F70895CF93DF93EC016C
S1130ED060E170E00E94BD0A0E9403070E94490776
S1130EE0CE01DD230CF40F969595879595958795FE
S1130EF0959587959595879560E170E00E94BD0A68
S1130F000E9403070E9449078AE00E9449078AE079
S1130F100E9449078EE90E944907DF91CF91089505
S1130F200F931F93CF93DF93CAE0D0E0BE010E94DA
S1130F30BD0A8B010E9403070E944907C801BE0134
S1130F400E94BD0A0E9403070E9449078EE10E9485
S1130F5049078AE30E9449078EE10E944907DF910D
S1130F60CF911F910F9108950F931F93CF93DF9308
S1130F70CAE0D0E0BE010E94BD0A8B010E940307B3
S1130F800E944907C801BE010E94BD0A0E940307CE
S1130F900E9449078CE10E9449078EE90E94490793
S1130FA08EE30E944907DF91CF911F910F9108951D
S1130FB00F931F93CF93DF93CAE0D0E0BE010E944A
S1130FC0BD0A8B010E9403070E944907C801BE01A4
S1130FD00E94BD0A0E9403070E9449078CE70E94F1
S1130FE049078CE10E9449078EEE0E944907DF9170
S1130FF0CF911F910F9108950F931F93CF93DF9378
S1131000CAE0D0E0BE010E94BD0A8B010E94030722
S11310100E944907C801BE010E94BD0A0E9403073D
S11310200E9449078CE10E9449078EE10E9449070A
S113103086EB0E944907DF91CF911F910F9108958C
S11310400F931F93CF93DF93CAE0D0E0BE010E94B9
S1131050BD0A8B010E9403070E944907C801BE0113
S11310600E94BD0A0E9403070E9449078EEE0E9457
S113107049078CE10E9449078EE30E944907DF91EA
S1131080CF911F910F9108950F931F93CF93DF93E7
S1131090CAE0D0E0BE010E94BD0A8B010E94030792
S11310A00E944907C801BE010E94BD0A0E940307AD
S11310B00E9449078EE90E9449078EE10E94490770
S11310C08CE10E944907DF91CF911F910F91089500
S11310D0EF92FF920F931F93CF93DF93C5E0D0E07D
S11310E00F2EFAE0EF2EFF24F02DB7010E94BD0A67
S11310F0162F072F0E9403070E944907812F902F64
S1131100219799F7DF91CF911F910F91FF90EF9065
S11311100895EF92FF920F931F93CF93DF93EC0107
S113112005E010E0EE24FF246894E4F8CE01B70152
S11311300E94BD0A0E9403070E944907CE01DD23D5
S11311400CF40F96EC01D595C795D595C795D59513
S1131150C795D595C7950150104041F7DF91CF91C0
S11311601F910F91FF90EF90089581B18F6381B922
S113117010924A041092490482B1807C806382B93F
S113118010924F0481E090E090934C0480934B04C0
S11311900895CF93C62F0E949C0ACC23C9F5809151
S11311A0490490914A04019690934A048093490417
S11311B08430910521F410924A041092490482B1BA
S11311C0E0914904F0914A04E050FF4F807C908103
S11311D0892B82B980914B0490914C040196909391
S11311E04C0480934B0480914704909148040196E9
S11311F0909348048093470480914F04813009F010
S11312004AC010924C0410924B0410924F0443C0F5
S11312108091490490914A04019790934A048093E1
S113122049042FEF8F3F920731F483E090E09093CD
S11312304A048093490482B1E0914904F0914A043C
S1131240E050FF4F807C9081892B82B980914B04C0
S113125090914C04019790934C0480934B042091FB
S11312604704309148042F5F3F4F30934804209344
S11312704704992334F487EC90E090934C048093D2
S11312804B0480914F04813031F410924C0410923D
S11312904B0410924F04CF910895861797074CF48E
S11312A0681B790B1AF4709561957F4F862F972FE1
S11312B00895681B790B1AF4709561957F4F28EC9B
S11312C030E0261B370B1AF4309521953F4F822FBF
S11312D0932F0895681779074CF4681B790B1AF457
S11312E0709561957F4F862F972F0895681B790B12
S11312F01AF4709561957F4F28EC30E0261B370B6C
S11313001AF4309521953F4F822F932F0895EF9231
S1131310FF920F931F93CF93DF938C011092480495
S11313201092470410924E0410924D04C0914B0445
S1131330D0914C04C817D90709F4DBC0CE01B80119
S11313400E944D097C01CE01B8010E946A09E81689
S1131350F9060CF061C0C701880F991F880F991F07
S1131360880F991F8E199F090AF4079695958795FA
S11313709595879595958795909346048093450414
S113138042C080914D0490914E040F9660E00E94FB
S1131390C90880914D0490914E0499231CF49095B2
S11313A081959F4F0E94680880914704909148045A
S11313B080FD13C0209145043091460482179307A1
S11313C0BCF480914D0490914E0418161906DCF477
S11313D0019790934E0480934D04209147043091DB
S11313E048048091450490914604281739075CF01D
S11313F080914D0490914E0499232CF4019690937E
S11314004E0480934D0480914B0490914C048017BA
S1131410910709F0B6CF63C09C01220F331F220F3E
S1131420331F220F331FA901481B590BCA019923EB
S11314300CF4079695958795959587959595879539
S1131440909346048093450442C080914D0490914A
S11314504E040F9661E00E94C90880914D0490915A
S11314604E0499231CF4909581959F4F0E9468081F
S1131470809147049091480480FD13C02091450455
S11314803091460482179307BCF480914D049091E7
S11314904E0418161906DCF4019790934E048093B9
S11314A04D04209147043091480480914504909163
S11314B04604281739075CF080914D0490914E043E
S11314C099232CF4019690934E0480934D048091BB
S11314D04B0490914C048017910709F0B6CF80918A
S11314E00601813031F40E942301109206010E940A
S11314F08C02DF91CF911F910F91FF90EF9008958F
S1131500E1E8F0E08081816080830895E1E8F0E023
S1131510208128602083208123602083282F392F75
S113152030938900209388001092850010928400E3
S1131530B19AB19BFECF08959C01E1E8F0E080816F
S11315408860808380818360808312161306A4F4EC
S113155080E090E0E8E8F0E04DE750E0A4E8B0E097
S11315605183408311961C921E92B19AB19BFECF77
S1131570019682179307A1F7089597FB092E072672
S11315800AD077FD04D00CD006D000201AF4709550
S113159061957F4F0895F6F7909581959F4F089533
S11315A0AA1BBB1B51E107C0AA1FBB1FA617B70785
S11315B010F0A61BB70B881F991F5A95A9F78095A1
S10F15C09095BC01CD010895F894FFCF74
S10715CC30062805B4
S9030000FC
