S0140000436F6E766579657242656C742E737265633E
S11300000C944C000C9442030C9470030C949E03C7
S11300100C94C6030C94F4030C9423040C9454041D
S11300200C946C000C946C000C946C000C946C009C
S11300300C946C000C946C000C946C000C946C008C
S11300400C946C000C946C000C946C000C946C007C
S11300500C946C000C946C000C946C000C946C006C
S11300600C946C000C946C000C946C000C946C005C
S11300700C946C000C94DF000C946C000C946C00D9
S11300800C946C000C946C000C946C000C946C003C
S11300900C946C000C946C0011241FBECFEFD0E2C2
S11300A0DEBFCDBF11E0A0E0B1E0EEE8F2E100E098
S11300B00BBF02C007900D92A430B107D9F71BBE45
S11300C011E0A4E0B1E001C01D92A73BB107E1F744
S11300D00E9482040C9445090C94000010BAEAE7CB
S11300E0F0E0808180688083808188608083808163
S11300F087608083ECE7F0E08081816480831092E4
S11301000501109204017894089581E0809305011B
S1130110EAE7F0E080818064808378940895109207
S11301200501EAE7F0E080818F7B808308959C01DC
S113013080910401813009F441C080916301909160
S11301406401FC01EE0FFF1FE80FF91FEE0FFF1F04
S1130150E959FE4F44815581483C51057CF5A9017C
S11301604253504063E04F3C560740F5FC01EE0F0C
S1130170FF1FE80FF91FEE0FFF1FE959FE4F4281E1
S11301805381241735075CF4FC01EE0FFF1FE80FC1
S1130190F91FEE0FFF1FE959FE4F33832283FC0141
S11301A0EE0FFF1F8E0F9F1FFC01EE0FFF1FE9597B
S11301B0FE4F8481958101969583848308951F92CF
S11301C00F920FB60F920BB60F9211242F933F93F9
S11301D04F935F936F937F938F939F93AF93BF934B
S11301E0EF93FF9380917800909179000E9497009B
S11301F0EAE7F0E0808180648083FF91EF91BF9112
S1130200AF919F918F917F916F915F914F913F91AA
S11302102F910F900BBE0F900FBE0F901F9018954B
S113022087B18F6087B988B1807F88B98FEF84B92F
S113023083EA84BD81E085BD8FEB87BD1092070101
S1130240109208011092090110920601089587BDC9
S1130250089588B1807F886088B981E0809309011E
S1130260089588B1807F816088B982E08093090114
S1130270089588B1807F88B910920901089588B1E2
S1130280807F866088B983E0809309010895809116
S113029060018130F9F4109260018091060181308F
S11302A039F0813058F0823031F0833061F409C084
S11302B00E94290108C00E94310105C00E94390131
S11302C002C00E943F0180910801882361F00E94CE
S11302D00F06089580910901809306010E94390157
S11302E081E08093600108958DB380788DBB8AB1DD
S11302F0807F8AB98DB18F708DB9E9E6F0E0808195
S11303008260808380818E7F808380818860808307
S113031080818B7F808380818F7D808380818061D9
S1130320808380818068808380818F7B8083EAE6FC
S1130330F0E080818260808380818E7F80838081F1
S11303408860808380818B7F8083808180628083CA
S113035080818F7E80838DB38F678DBB8CB38F67D5
S11303608CBB78940895FC01EE0FFF1FE80FF91F72
S1130370EE0FFF1FE959FE4F528143812181213045
S113038039F5252F342FA90149535040413C5105DB
S113039068F4FC01EE0FFF1F8E0F9F1FFC01EE0F90
S11303A0FF1FE959FE4F83E0808308952F513040A9
S11303B027313105A0F5FC01EE0FFF1F8E0F9F1FA3
S11303C0FC01EE0FFF1FE959FE4F84E0808308957E
S11303D0252F342FA901445F51404431510568F45D
S11303E0FC01EE0FFF1F8E0F9F1FFC01EE0FFF1F7E
S11303F0E959FE4F81E080830895295B3140213320
S1130400310568F4FC01EE0FFF1F8E0F9F1FFC01E6
S1130410EE0FFF1FE959FE4F82E0808308958FEEAF
S113042090E00E94D20708958091B0019091B101AB
S11304302FEF8F3F920739F40E9433069093B10156
S11304408093B00108950E949D050E943306909305
S1130450B1018093B00108958091B0019091B101F0
S11304602FEF8F3F920761F0FC01EE0FFF1F8E0FFD
S11304709F1FFC01EE0FFF1FE959FE4F81E08183AE
S1130480089580910501813099F48093040183E0FB
S113049090E00E94FD08109204014A992CC00E9429
S11304A08F0080916301909164010E94B3010895CB
S11304B083E090E00E94FD084A9B1DC080910E01DC
S11304C090910F01009779F48091B0019091B1015E
S11304D090936401809363018FEF9FEF9093B10138
S11304E08093B00106C00E947105909364018093CB
S11304F063010E94850008958091AC019091AD0143
S1130500009709F4B0C080916001813009F4ABC058
S11305108091650190916601FC01EE0FFF1F8E0F23
S11305209F1FFC01EE0FFF1FE959FE4F80818230AF
S113053009F46BC0833020F4813009F085C006C013
S1130540833019F1843009F07FC03FC08091B40139
S11305509091B501009709F081C08091A801909114
S1130560A90101969093A9018093A8012091AE015D
S11305703091AF012F5F3F4F3093AF012093AE0115
S11305800E9469070E940F0608958091B40190911A
S1130590B5018639910509F061C08091A30190915C
S11305A0A40101969093A4018093A3012091AE012C
S11305B03091AF012F5F3F4F3093AF012093AE01D5
S11305C00E9445070E940F0608958091B4019091FE
S11305D0B5018233910509F041C08091A501909144
S11305E0A60101969093A6018093A5012091AE01E6
S11305F03091AF012F5F3F4F3093AF012093AE0195
S11306000E9421070E940F0608958091B4019091E1
S1130610B5018436910511F58091AA019091AB0141
S113062001969093AB018093AA012091AE01309181
S1130630AF012F5F3F4F3093AF012093AE010E9473
S11306408D070E940F06089580EF90E00E94D20665
S113065081E0809308010E94470108950E943901B6
S113066081E08093070108958091AC019091AD01E0
S1130670009739F484EF91E00E94FD080E9439014B
S1130680FFCF08951F920F920FB60F920BB60F92E1
S113069011242F933F934F935F936F937F938F9383
S11306A09F93AF93BF93EF93FF9383E090E00E94F7
S11306B0FD08489902C00E941402FF91EF91BF9176
S11306C0AF919F918F917F916F915F914F913F91E6
S11306D02F910F900BBE0F900FBE0F901F90189587
S11306E01F920F920FB60F920BB60F9211242F93F5
S11306F03F934F935F936F937F938F939F93AF93A6
S1130700BF93EF93FF9383E090E00E94FD08499923
S113071002C00E942C02FF91EF91BF91AF919F9173
S11307208F917F916F915F914F913F912F910F9096
S11307300BBE0F900FBE0F901F9018951F920F9233
S11307400FB60F920BB60F9211242F933F934F9332
S11307505F936F937F938F939F93AF93BF93EF9325
S1130760FF930E944102FF91EF91BF91AF919F913E
S11307708F917F916F915F914F913F912F910F9046
S11307800BBE0F900FBE0F901F9018951F920F92E3
S11307900FB60F920BB60F9211242F933F934F93E2
S11307A05F936F937F938F939F93AF93BF93EF93D5
S11307B0FF9383E090E00E94FD084B9902C00E94E1
S11307C07C02FF91EF91BF91AF919F918F917F91A7
S11307D06F915F914F913F912F910F900BBE0F90AE
S11307E00FBE0F901F9018951F920F920FB60F9285
S11307F00BB60F9211242F933F934F935F936F93F4
S11308007F938F939F93AF93BF93EF93FF9383E073
S113081090E00E94FD08649903C081E08093B601D2
S1130820FF91EF91BF91AF919F918F917F916F91C4
S11308305F914F913F912F910F900BBE0F900FBE80
S11308400F901F9018951F920F920FB60F920BB630
S11308500F9211242F933F934F935F936F937F9342
S11308608F939F93AF93BF93EF93FF9384E190E0B3
S11308700E94FD08659905C081E08093A7010E944C
S11308803403FF91EF91BF91AF919F918F917F912D
S11308906F915F914F913F912F910F900BBE0F90ED
S11308A00FBE0F901F9018951F920F920FB60F92C4
S11308B00BB60F9211242F933F934F935F936F9333
S11308C07F938F939F93AF93BF93EF93FF9384E1B1
S11308D090E00E94FD08669902C00E944701FF91C2
S11308E0EF91BF91AF919F918F917F916F915F91A4
S11308F04F913F912F910F900BBE0F900FBE0F9011
S11309001F901895E1E6F0E080E8808310820E9451
S1130910F70888EE93E00E94FD0880E590E00E94CD
S1130920D2070E94D5050E94550581E590E00E94FA
S1130930D2078FEF81B90E94740182E590E00E9492
S1130940D2070E94FE0783E590E00E94D2078091BF
S1130950B4019091B501009789F084E190E060E0E2
S11309600E9412088091B4019091B5010E94D207AF
S11309708091B4019091B501009779F71092B50177
S11309801092B4011092B6010E946E0088EE93E0BA
S11309900E94FD080E94100184E590E00E94D207A5
S11309A00E942901C7E6D1E042C08091AE01909136
S11309B0AF010E94FD0680ED97E00E94FD08809142
S11309C060018823C9F18091AA019091AB010E9432
S11309D08D0780ED97E00E94FD08809160018823D7
S11309E059F18091A8019091A9010E94690780EDB5
S11309F097E00E94FD08809160018823E9F08091CE
S1130A00A3019091A4010E94450780ED97E00E9404
S1130A10FD0880916001882379F08091A50190916F
S1130A20A6010E94210780ED97E00E94FD088091B5
S1130A306001813009F4B9CF84E690E00E94FD089A
S1130A408091AC019091AD01009789F3809165018B
S1130A5090916601FC01EE0FFF1F8E0F9F1FFC019A
S1130A60EE0FFF1FEC0FFD1F8081823079F0833081
S1130A7018F48130E1F605C0833069F08430B9F6AA
S1130A800FC080E090E00E94B308D1CF84E690E0EC
S1130A900E94B308CCCF86E990E00E94B308C7CF88
S1130AA082E390E00E94B308C2CF10920B0110922F
S1130AB00A0110920D0110920C0110920F01109274
S1130AC00E0110921101109210010895860F971FC4
S1130AD08832910514F08897089599230CF4889628
S1130AE008950F931F93CF93DF93C0910E01D0917C
S1130AF00F012097C9F080910A0190910B01FC012C
S1130B00EE0FFF1FE05FFE4F0081118161E070E096
S1130B100E94660590930B0180930A012197D0935C
S1130B200F01C0930E0102C00FEF1FEF802F912F12
S1130B30DF91CF911F910F9108950F931F93CF933E
S1130B40DF938C01C0910E01D0910F01209749F4DD
S1130B5080910A0190910B0190930D0180930C01F7
S1130B600FC01C161D0664F480910C0190910D01B8
S1130B7061E070E00E94660590930D0180930C0182
S1130B802196D0930F01C0930E0180910C01909196
S1130B900D01FC01EE0FFF1FE05FFE4F1183008388
S1130BA0DF91CF911F910F910895109266011092D9
S1130BB0650110926201109261018FEF9FEF909393
S1130BC0B1018093B00110926401109263011092FC
S1130BD0AD011092AC01109260011092A701109225
S1130BE0AF011092AE011092AB011092AA011092C3
S1130BF0A9011092A8011092A4011092A3011092CD
S1130C00A6011092A5010895860F971F8A309105B9
S1130C1014F00A97089599230CF40A960895CF9333
S1130C20DF93C091AC01D091AD012097C9F08091C0
S1130C3065019091660161E070E00E940406909362
S1130C406601809365012197D093AD01C093AC01F7
S1130C50209731F48091A701813011F40E9434036C
S1130C60DF91CF910895CF93DF93C091AC01D091E0
S1130C70AD01209749F480916501909166019093AC
S1130C806201809361010FC01C161D0664F48091FB
S1130C9061019091620161E070E00E94040690930A
S1130CA06201809361012196D093AD01C093AC01A0
S1130CB08091610190916201FC01EE0FFF1FE80F2A
S1130CC0F91FEE0FFF1FE959FE4F20E034E0338394
S1130CD022831582148211821082DF91CF910895AC
S1130CE0873071F1883070F4833011F1843028F446
S1130CF08130D1F18230D0F417C08530E9F08630EC
S1130D00E8F418C08B3021F18C3028F48930E1F0FC
S1130D108A30E0F417C08D30F9F08D30D8F08E3081
S1130D20E9F08F30F9F41CC08CEF08958AED089532
S1130D3082EF089586E6089586EB08958EEB089574
S1130D4080EE08958EEF089586EE08958EEE089550
S1130D508EE308958CE908958AE708958EE908954D
S1130D608EE8089580E0089580E6089520E030E05C
S1130D7090E062B1AC01022E02C0559547950A94E9
S1130D80E2F741704295440F440F407C562F5F7B3D
S1130D90452B42B9179A17982F5F3F4F28303105DA
S1130DA041F70895CF93DF93EC0160E170E00E9476
S1130DB01E090E9470060E94B606CE01DD230CF4C3
S1130DC00F9695958795959587959595879595957E
S1130DD0879560E170E00E941E090E9470060E94DF
S1130DE0B6068AE00E94B6068AE00E94B6068EE93C
S1130DF00E94B606DF91CF9108950F931F93CF936E
S1130E00DF93CAE0D0E0BE010E941E098B010E945C
S1130E1070060E94B606C801BE010E941E090E9407
S1130E2070060E94B6068EE10E94B6068AE30E940E
S1130E30B6068EE10E94B606DF91CF911F910F9105
S1130E4008950F931F93CF93DF93CAE0D0E0BE01C0
S1130E500E941E098B010E9470060E94B606C801FA
S1130E60BE010E941E090E9470060E94B6068CE70D
S1130E700E94B6068CE10E94B6068EEE0E94B6066B
S1130E80DF91CF911F910F9108950F931F93CF93EB
S1130E90DF93CAE0D0E0BE010E941E098B010E94CC
S1130EA070060E94B606C801BE010E941E090E9477
S1130EB070060E94B6068CE10E94B6068EE10E947E
S1130EC0B60686EB0E94B606DF91CF911F910F9173
S1130ED008950F931F93CF93DF93CAE0D0E0BE0130
S1130EE00E941E098B010E9470060E94B606C8016A
S1130EF0BE010E941E090E9470060E94B6068EEE74
S1130F000E94B6068CE10E94B6068EE30E94B606E5
S1130F10DF91CF911F910F9108950F931F93CF935A
S1130F20DF93CAE0D0E0BE010E941E098B010E943B
S1130F3070060E94B606C801BE010E941E090E94E6
S1130F4070060E94B6068EE90E94B6068EE10E94E3
S1130F50B6068CE10E94B606DF91CF911F910F91E6
S1130F600895EF92FF920F931F93CF93DF93C5E001
S1130F70D0E00F2EFAE0EF2EFF24F02DB7010E94EF
S1130F801E09162F072F0E9470060E94B606812F95
S1130F90902F219799F7DF91CF911F910F91FF9097
S1130FA0EF900895EF92FF920F931F93CF93DF93E7
S1130FB0EC0105E010E0EE24FF246894E4F8CE018F
S1130FC0B7010E941E090E9470060E94B606CE0157
S1130FD0DD230CF40F96EC01D595C795D595C795EF
S1130FE0D595C795D595C7950150104041F7DF9128
S1130FF0CF911F910F91FF90EF90089581B18F636E
S113100081B91092B3011092B20182B1807C8063E5
S113101082B91092B60181E090E09093B50180937B
S1131020B4010895CF93C62F0E94FD08CC2381F507
S11310308091B2019091B30101969093B301809392
S1131040B2018430910521F41092B3011092B201DF
S113105082B1E091B201F091B301E050FF4F807C86
S11310609081892B82B98091B4019091B501019648
S11310709093B5018093B4018091B601813009F059
S113108040C01092B5011092B4011092B60139C05B
S11310908091B2019091B30101979093B301809331
S11310A0B2012FEF8F3F920731F483E090E09093E9
S11310B0B3018093B20182B1E091B201F091B30126
S11310C0E050FF4F807C9081892B82B98091B401DC
S11310D09091B50101979093B5018093B401992340
S11310E034F487EC90E09093B5018093B40180913F
S11310F0B601813031F41092B5011092B40110920E
S1131100B601CF910895861797074CF4681B790BA5
S11311101AF4709561957F4F862F972F0895861B3B
S1131120970B9C0128533F4F1AF4309521953F4F5C
S1131130822F932F0895681779074CF4681B790B55
S11311401AF4709561957F4F862F972F0895861B0B
S1131150970B9C0128533F4F1AF4309521953F4F2C
S1131160822F932F0895EF92FF920F931F93CF93A3
S1131170DF937C01C091B401D091B501C817D907A0
S113118079F1CE01B7010E9483088C01CE01B70129
S11311900E949B08081719076CF48FE090E060E048
S11311A00E9412088091B4019091B5018E159F059B
S11311B0A1F70CC08FE090E061E00E9412088091DA
S11311C0B4019091B5018E159F05A1F78091070197
S11311D0813031F40E942901109207010E947C029F
S11311E0DF91CF911F910F91FF90EF900895E1E867
S11311F0F0E080818160808308959C01E1E8F0E063
S113120080818860808380818360808312161306C6
S1131210A4F480E090E0E8E8F0E04DE750E0A4E8D2
S1131220B0E05183408311961C921E92B19AB19BF7
S1131230FECF019682179307A1F7089597FB092E15
S113124007260AD077FD04D00CD006D000201AF46B
S1131250709561957F4F0895F6F7909581959F4F0E
S11312600895AA1BBB1B51E107C0AA1FBB1FA617E9
S1131270B70710F0A61BB70B881F991F5A95A9F73B
S111128080959095BC01CD010895F894FFCFA0
S107128E30062805F5
S9030000FC
